{
  "contractName": "BIdentity",
  "abi": [
    {
      "constant": true,
      "inputs": [
        {
          "name": "x0",
          "type": "uint256"
        },
        {
          "name": "y0",
          "type": "uint256"
        }
      ],
      "name": "twice",
      "outputs": [
        {
          "name": "",
          "type": "uint256"
        },
        {
          "name": "",
          "type": "uint256"
        }
      ],
      "payable": false,
      "stateMutability": "pure",
      "type": "function"
    },
    {
      "constant": true,
      "inputs": [
        {
          "name": "scalar",
          "type": "uint256"
        }
      ],
      "name": "multipleGeneratorByScalar",
      "outputs": [
        {
          "name": "",
          "type": "bytes"
        }
      ],
      "payable": false,
      "stateMutability": "pure",
      "type": "function"
    },
    {
      "constant": true,
      "inputs": [],
      "name": "zeroProj",
      "outputs": [
        {
          "name": "x",
          "type": "uint256"
        },
        {
          "name": "y",
          "type": "uint256"
        },
        {
          "name": "z",
          "type": "uint256"
        }
      ],
      "payable": false,
      "stateMutability": "pure",
      "type": "function"
    },
    {
      "constant": true,
      "inputs": [],
      "name": "getAddressKey",
      "outputs": [
        {
          "name": "key",
          "type": "bytes"
        }
      ],
      "payable": false,
      "stateMutability": "view",
      "type": "function"
    },
    {
      "constant": true,
      "inputs": [
        {
          "name": "convertedAddress",
          "type": "bytes"
        },
        {
          "name": "dataHash",
          "type": "bytes32"
        }
      ],
      "name": "getDataKey",
      "outputs": [
        {
          "name": "key",
          "type": "bytes32"
        }
      ],
      "payable": false,
      "stateMutability": "pure",
      "type": "function"
    },
    {
      "constant": true,
      "inputs": [
        {
          "name": "",
          "type": "uint256"
        }
      ],
      "name": "approvals",
      "outputs": [
        {
          "name": "_convertedAddress",
          "type": "bytes"
        },
        {
          "components": [
            {
              "name": "_signature",
              "type": "bytes"
            },
            {
              "name": "_signer",
              "type": "address"
            }
          ],
          "name": "_signature",
          "type": "tuple"
        }
      ],
      "payable": false,
      "stateMutability": "view",
      "type": "function"
    },
    {
      "constant": true,
      "inputs": [
        {
          "name": "x0",
          "type": "uint256"
        },
        {
          "name": "y0",
          "type": "uint256"
        },
        {
          "name": "z0",
          "type": "uint256"
        }
      ],
      "name": "toAffinePoint",
      "outputs": [
        {
          "name": "x1",
          "type": "uint256"
        },
        {
          "name": "y1",
          "type": "uint256"
        }
      ],
      "payable": false,
      "stateMutability": "pure",
      "type": "function"
    },
    {
      "constant": false,
      "inputs": [],
      "name": "renounceOwnership",
      "outputs": [],
      "payable": false,
      "stateMutability": "nonpayable",
      "type": "function"
    },
    {
      "constant": true,
      "inputs": [
        {
          "name": "x0",
          "type": "uint256"
        },
        {
          "name": "y0",
          "type": "uint256"
        },
        {
          "name": "scalar",
          "type": "uint256"
        }
      ],
      "name": "multiplyScalar",
      "outputs": [
        {
          "name": "x1",
          "type": "uint256"
        },
        {
          "name": "y1",
          "type": "uint256"
        }
      ],
      "payable": false,
      "stateMutability": "pure",
      "type": "function"
    },
    {
      "constant": true,
      "inputs": [
        {
          "name": "x0",
          "type": "uint256"
        },
        {
          "name": "y0",
          "type": "uint256"
        }
      ],
      "name": "toProjectivePoint",
      "outputs": [
        {
          "name": "P",
          "type": "uint256[3]"
        }
      ],
      "payable": false,
      "stateMutability": "pure",
      "type": "function"
    },
    {
      "constant": true,
      "inputs": [],
      "name": "zeroAffine",
      "outputs": [
        {
          "name": "x",
          "type": "uint256"
        },
        {
          "name": "y",
          "type": "uint256"
        }
      ],
      "payable": false,
      "stateMutability": "pure",
      "type": "function"
    },
    {
      "constant": true,
      "inputs": [],
      "name": "owner",
      "outputs": [
        {
          "name": "",
          "type": "address"
        }
      ],
      "payable": false,
      "stateMutability": "view",
      "type": "function"
    },
    {
      "constant": true,
      "inputs": [
        {
          "name": "x0",
          "type": "uint256"
        },
        {
          "name": "y0",
          "type": "uint256"
        }
      ],
      "name": "isZeroCurve",
      "outputs": [
        {
          "name": "isZero",
          "type": "bool"
        }
      ],
      "payable": false,
      "stateMutability": "pure",
      "type": "function"
    },
    {
      "constant": true,
      "inputs": [
        {
          "name": "",
          "type": "bytes32"
        }
      ],
      "name": "issuers",
      "outputs": [
        {
          "name": "_dappAddr",
          "type": "address"
        },
        {
          "name": "_ethAddr",
          "type": "address"
        }
      ],
      "payable": false,
      "stateMutability": "view",
      "type": "function"
    },
    {
      "constant": true,
      "inputs": [
        {
          "name": "x0",
          "type": "uint256"
        },
        {
          "name": "y0",
          "type": "uint256"
        },
        {
          "name": "z0",
          "type": "uint256"
        }
      ],
      "name": "twiceProj",
      "outputs": [
        {
          "name": "x1",
          "type": "uint256"
        },
        {
          "name": "y1",
          "type": "uint256"
        },
        {
          "name": "z1",
          "type": "uint256"
        }
      ],
      "payable": false,
      "stateMutability": "pure",
      "type": "function"
    },
    {
      "constant": true,
      "inputs": [
        {
          "name": "x0",
          "type": "uint256"
        },
        {
          "name": "y0",
          "type": "uint256"
        },
        {
          "name": "z0",
          "type": "uint256"
        },
        {
          "name": "x1",
          "type": "uint256"
        },
        {
          "name": "y1",
          "type": "uint256"
        },
        {
          "name": "z1",
          "type": "uint256"
        }
      ],
      "name": "addProj",
      "outputs": [
        {
          "name": "x2",
          "type": "uint256"
        },
        {
          "name": "y2",
          "type": "uint256"
        },
        {
          "name": "z2",
          "type": "uint256"
        }
      ],
      "payable": false,
      "stateMutability": "pure",
      "type": "function"
    },
    {
      "constant": false,
      "inputs": [
        {
          "name": "_newOwner",
          "type": "address"
        }
      ],
      "name": "transferOwnership",
      "outputs": [],
      "payable": false,
      "stateMutability": "nonpayable",
      "type": "function"
    },
    {
      "anonymous": false,
      "inputs": [
        {
          "indexed": false,
          "name": "issuer",
          "type": "address"
        }
      ],
      "name": "NewIssuer",
      "type": "event"
    },
    {
      "anonymous": false,
      "inputs": [
        {
          "indexed": false,
          "name": "requestKey",
          "type": "uint256"
        }
      ],
      "name": "RequestAdd",
      "type": "event"
    },
    {
      "anonymous": false,
      "inputs": [
        {
          "indexed": true,
          "name": "previousOwner",
          "type": "address"
        }
      ],
      "name": "OwnershipRenounced",
      "type": "event"
    },
    {
      "anonymous": false,
      "inputs": [
        {
          "indexed": true,
          "name": "previousOwner",
          "type": "address"
        },
        {
          "indexed": true,
          "name": "newOwner",
          "type": "address"
        }
      ],
      "name": "OwnershipTransferred",
      "type": "event"
    },
    {
      "constant": false,
      "inputs": [
        {
          "name": "dappIssuer",
          "type": "address"
        },
        {
          "name": "ethIssuer",
          "type": "address"
        }
      ],
      "name": "enrollIssuer",
      "outputs": [],
      "payable": false,
      "stateMutability": "nonpayable",
      "type": "function"
    },
    {
      "constant": false,
      "inputs": [
        {
          "name": "convertedAddress",
          "type": "bytes"
        },
        {
          "name": "dataHash",
          "type": "bytes32"
        },
        {
          "name": "signature",
          "type": "bytes"
        }
      ],
      "name": "requestAdd",
      "outputs": [],
      "payable": false,
      "stateMutability": "nonpayable",
      "type": "function"
    },
    {
      "constant": false,
      "inputs": [
        {
          "name": "dataHash",
          "type": "bytes32"
        },
        {
          "name": "requestKey",
          "type": "uint256"
        },
        {
          "name": "isApprove",
          "type": "bool"
        }
      ],
      "name": "approveAdd",
      "outputs": [],
      "payable": false,
      "stateMutability": "nonpayable",
      "type": "function"
    },
    {
      "constant": true,
      "inputs": [
        {
          "name": "convertedAddress",
          "type": "bytes"
        },
        {
          "name": "dataHash",
          "type": "bytes32"
        }
      ],
      "name": "getSignature",
      "outputs": [
        {
          "name": "signature",
          "type": "bytes"
        },
        {
          "name": "signer",
          "type": "address"
        }
      ],
      "payable": false,
      "stateMutability": "view",
      "type": "function"
    },
    {
      "constant": false,
      "inputs": [
        {
          "name": "convertedAddress",
          "type": "bytes"
        },
        {
          "name": "dataHash",
          "type": "bytes32"
        }
      ],
      "name": "revokeBySigner",
      "outputs": [],
      "payable": false,
      "stateMutability": "nonpayable",
      "type": "function"
    },
    {
      "constant": false,
      "inputs": [
        {
          "name": "dataHash",
          "type": "bytes32"
        }
      ],
      "name": "revokeByOwner",
      "outputs": [],
      "payable": false,
      "stateMutability": "nonpayable",
      "type": "function"
    }
  ],
  "bytecode": "0x6080604052336000806101000a81548173ffffffffffffffffffffffffffffffffffffffff021916908373ffffffffffffffffffffffffffffffffffffffff160217905550613641806100536000396000f300608060405260043610610133576000357c0100000000000000000000000000000000000000000000000000000000900463ffffffff16806306fa8e741461013857806309d3ef311461025b5780630afb4ddc146102ad57806314c67060146103535780631be280741461038c5780631fa640ca146103d35780634c35c9be146104635780635b23b2fb146104f657806363035f661461055957806364cdd2d814610606578063675ca0431461067d5780636ccfbef2146106d9578063715018a61461070a57806372fb4a14146107215780637ec8da8d1461077d57806384dfba46146107f05780638da5cb5b14610822578063a8819bfc14610879578063c30cfa2d14610936578063c53a441314610985578063c80edca414610a29578063f214aba014610a8c578063f2fde38b14610b0d575b600080fd5b34801561014457600080fd5b506101ad600480360381019080803590602001908201803590602001908080601f01602080910402602001604051908101604052809392919081815260200183838082843782019150505050505091929192908035600019169060200190929190505050610b50565b60405180806020018373ffffffffffffffffffffffffffffffffffffffff1673ffffffffffffffffffffffffffffffffffffffff168152602001828103825284818151815260200191508051906020019080838360005b8381101561021f578082015181840152602081019050610204565b50505050905090810190601f16801561024c5780820380516001836020036101000a031916815260200191505b50935050505060405180910390f35b34801561026757600080fd5b506102906004803603810190808035906020019092919080359060200190929190505050610d07565b604051808381526020018281526020019250505060405180910390f35b3480156102b957600080fd5b506102d860048036038101908080359060200190929190505050610d3b565b6040518080602001828103825283818151815260200191508051906020019080838360005b838110156103185780820151818401526020810190506102fd565b50505050905090810190601f1680156103455780820380516001836020036101000a031916815260200191505b509250505060405180910390f35b34801561035f57600080fd5b50610368610dc7565b60405180848152602001838152602001828152602001935050505060405180910390f35b34801561039857600080fd5b506103d1600480360381019080803560001916906020019092919080359060200190929190803515159060200190929190505050610de5565b005b3480156103df57600080fd5b506103e86111cd565b6040518080602001828103825283818151815260200191508051906020019080838360005b8381101561042857808201518184015260208101905061040d565b50505050905090810190601f1680156104555780820380516001836020036101000a031916815260200191505b509250505060405180910390f35b34801561046f57600080fd5b506104d8600480360381019080803590602001908201803590602001908080601f016020809104026020016040519081016040528093929190818152602001838380828437820191505050505050919291929080356000191690602001909291905050506111f3565b60405180826000191660001916815260200191505060405180910390f35b34801561050257600080fd5b50610557600480360381019080803573ffffffffffffffffffffffffffffffffffffffff169060200190929190803573ffffffffffffffffffffffffffffffffffffffff1690602001909291905050506112dc565b005b34801561056557600080fd5b5061058460048036038101908080359060200190929190505050611547565b6040518080602001838152602001828103825284818151815260200191508051906020019080838360005b838110156105ca5780820151818401526020810190506105af565b50505050905090810190601f1680156105f75780820380516001836020036101000a031916815260200191505b50935050505060405180910390f35b34801561061257600080fd5b5061067b600480360381019080803590602001908201803590602001908080601f01602080910402602001604051908101604052809392919081815260200183838082843782019150505050505091929192908035600019169060200190929190505050611705565b005b34801561068957600080fd5b506106bc600480360381019080803590602001909291908035906020019092919080359060200190929190505050611ac6565b604051808381526020018281526020019250505060405180910390f35b3480156106e557600080fd5b506107086004803603810190808035600019169060200190929190505050611b5e565b005b34801561071657600080fd5b5061071f611c35565b005b34801561072d57600080fd5b50610760600480360381019080803590602001909291908035906020019092919080359060200190929190505050611d37565b604051808381526020018281526020019250505060405180910390f35b34801561078957600080fd5b506107b26004803603810190808035906020019092919080359060200190929190505050611e43565b6040518082600360200280838360005b838110156107dd5780820151818401526020810190506107c2565b5050505090500191505060405180910390f35b3480156107fc57600080fd5b50610805611f48565b604051808381526020018281526020019250505060405180910390f35b34801561082e57600080fd5b50610837611f5c565b604051808273ffffffffffffffffffffffffffffffffffffffff1673ffffffffffffffffffffffffffffffffffffffff16815260200191505060405180910390f35b34801561088557600080fd5b50610934600480360381019080803590602001908201803590602001908080601f01602080910402602001604051908101604052809392919081815260200183838082843782019150505050505091929192908035600019169060200190929190803590602001908201803590602001908080601f0160208091040260200160405190810160405280939291908181526020018383808284378201915050505050509192919290505050611f81565b005b34801561094257600080fd5b5061096b60048036038101908080359060200190929190803590602001909291905050506125cf565b604051808215151515815260200191505060405180910390f35b34801561099157600080fd5b506109b460048036038101908080356000191690602001909291905050506125f9565b604051808373ffffffffffffffffffffffffffffffffffffffff1673ffffffffffffffffffffffffffffffffffffffff1681526020018273ffffffffffffffffffffffffffffffffffffffff1673ffffffffffffffffffffffffffffffffffffffff1681526020019250505060405180910390f35b348015610a3557600080fd5b50610a6860048036038101908080359060200190929190803590602001909291908035906020019092919050505061265d565b60405180848152602001838152602001828152602001935050505060405180910390f35b348015610a9857600080fd5b50610ae9600480360381019080803590602001909291908035906020019092919080359060200190929190803590602001909291908035906020019092919080359060200190929190505050612b0e565b60405180848152602001838152602001828152602001935050505060405180910390f35b348015610b1957600080fd5b50610b4e600480360381019080803573ffffffffffffffffffffffffffffffffffffffff169060200190929190505050612c9e565b005b60606000610b5c61344e565b6002856040518082805190602001908083835b602083101515610b945780518252602082019150602081019050602083039250610b6f565b6001836020036101000a03801982511681845116808217855250505050505090500191505090815260200160405180910390206000610bd387876111f3565b60001916600019168152602001908152602001600020604080519081016040529081600082018054600181600116156101000203166002900480601f016020809104026020016040519081016040528092919081815260200182805460018160011615610100020316600290048015610c8d5780601f10610c6257610100808354040283529160200191610c8d565b820191906000526020600020905b815481529060010190602001808311610c7057829003601f168201915b505050505081526020016001820160009054906101000a900473ffffffffffffffffffffffffffffffffffffffff1673ffffffffffffffffffffffffffffffffffffffff1673ffffffffffffffffffffffffffffffffffffffff168152505090508060000151816020015181915092509250509250929050565b6000806000610d188585600161265d565b809350819650829750505050610d2f858583611ac6565b92509250509250929050565b60606000806060806060610d907f79be667ef9dcbbac55a06295ce870b07029bfcdb2dce28d959f2815b16f817987f483ada7726a3c4655da4fbfc0e1108a8fd17b448a68554199c47d08ffb10d4b889611d37565b8095508196505050610da185612d05565b9250610dac84612d05565b9150610db88383612d49565b90508095505050505050919050565b60008060008060016000829250819150809050925092509250909192565b6060610def6111cd565b9050806040516020018082805190602001908083835b602083101515610e2a5780518252602082019150602081019050602083039250610e05565b6001836020036101000a0380198251168184511680821785525050505050509050019150506040516020818303038152906040526040518082805190602001908083835b602083101515610e935780518252602082019150602081019050602083039250610e6e565b6001836020036101000a038019825116818451168082178552505050505050905001915050604051809103902060001916600360008581526020019081526020016000206000016040516020018082805460018160011615610100020316600290048015610f385780601f10610f16576101008083540402835291820191610f38565b820191906000526020600020905b815481529060010190602001808311610f24575b50509150506040516020818303038152906040526040518082805190602001908083835b602083101515610f815780518252602082019150602081019050602083039250610f5c565b6001836020036101000a038019825116818451168082178552505050505050905001915050604051809103902060001916141515611027576040517f08c379a00000000000000000000000000000000000000000000000000000000081526004018080602001828103825260128152602001807f6e6f74206964656e74697479206f776e6572000000000000000000000000000081525060200191505060405180910390fd5b811561116357600360008481526020019081526020016000206001016002826040518082805190602001908083835b60208310151561107b5780518252602082019150602081019050602083039250611056565b6001836020036101000a038019825116818451168082178552505050505050905001915050908152602001604051809103902060006110ba84886111f3565b60001916600019168152602001908152602001600020600082018160000190805460018160011615610100020316600290046110f792919061347e565b506001820160009054906101000a900473ffffffffffffffffffffffffffffffffffffffff168160010160006101000a81548173ffffffffffffffffffffffffffffffffffffffff021916908373ffffffffffffffffffffffffffffffffffffffff1602179055509050505b60036000848152602001908152602001600020600080820160006111879190613505565b600182016000808201600061119c9190613505565b6001820160006101000a81549073ffffffffffffffffffffffffffffffffffffffff02191690555050505050505050565b60606111ee3373ffffffffffffffffffffffffffffffffffffffff16610d3b565b905090565b600082826040516020018083805190602001908083835b60208310151561122f578051825260208201915060208101905060208303925061120a565b6001836020036101000a0380198251168184511680821785525050505050509050018260001916600019168152602001925050506040516020818303038152906040526040518082805190602001908083835b6020831015156112a75780518252602082019150602081019050602083039250611282565b6001836020036101000a0380198251168184511680821785525050505050509050019150506040518091039020905092915050565b6000809054906101000a900473ffffffffffffffffffffffffffffffffffffffff1673ffffffffffffffffffffffffffffffffffffffff163373ffffffffffffffffffffffffffffffffffffffff1614151561133757600080fd5b60408051908101604052808373ffffffffffffffffffffffffffffffffffffffff1681526020018273ffffffffffffffffffffffffffffffffffffffff168152506001600084604051602001808273ffffffffffffffffffffffffffffffffffffffff1673ffffffffffffffffffffffffffffffffffffffff166c010000000000000000000000000281526014019150506040516020818303038152906040526040518082805190602001908083835b60208310151561140c57805182526020820191506020810190506020830392506113e7565b6001836020036101000a03801982511681845116808217855250505050505090500191505060405180910390206000191660001916815260200190815260200160002060008201518160000160006101000a81548173ffffffffffffffffffffffffffffffffffffffff021916908373ffffffffffffffffffffffffffffffffffffffff16021790555060208201518160010160006101000a81548173ffffffffffffffffffffffffffffffffffffffff021916908373ffffffffffffffffffffffffffffffffffffffff1602179055509050507f33209da902260b15af88d27b2383f608bb1ed36eeb4ddef27866de5eafe0752281604051808273ffffffffffffffffffffffffffffffffffffffff1673ffffffffffffffffffffffffffffffffffffffff16815260200191505060405180910390a15050565b6003602052806000526040600020600091509050806000018054600181600116156101000203166002900480601f0160208091040260200160405190810160405280929190818152602001828054600181600116156101000203166002900480156115f35780601f106115c8576101008083540402835291602001916115f3565b820191906000526020600020905b8154815290600101906020018083116115d657829003601f168201915b50505050509080600101604080519081016040529081600082018054600181600116156101000203166002900480601f0160208091040260200160405190810160405280929190818152602001828054600181600116156101000203166002900480156116a15780601f10611676576101008083540402835291602001916116a1565b820191906000526020600020905b81548152906001019060200180831161168457829003601f168201915b505050505081526020016001820160009054906101000a900473ffffffffffffffffffffffffffffffffffffffff1673ffffffffffffffffffffffffffffffffffffffff1673ffffffffffffffffffffffffffffffffffffffff1681525050905082565b8181600073ffffffffffffffffffffffffffffffffffffffff163373ffffffffffffffffffffffffffffffffffffffff16141515156117ac576040517f08c379a000000000000000000000000000000000000000000000000000000000815260040180806020018281038252600f8152602001807f696e76616c69642061646472657373000000000000000000000000000000000081525060200191505060405180910390fd5b6001600033604051602001808273ffffffffffffffffffffffffffffffffffffffff1673ffffffffffffffffffffffffffffffffffffffff166c010000000000000000000000000281526014019150506040516020818303038152906040526040518082805190602001908083835b602083101515611840578051825260208201915060208101905060208303925061181b565b6001836020036101000a03801982511681845116808217855250505050505090500191505060405180910390206000191660001916815260200190815260200160002060010160009054906101000a900473ffffffffffffffffffffffffffffffffffffffff1673ffffffffffffffffffffffffffffffffffffffff166002836040518082805190602001908083835b6020831015156118f557805182526020820191506020810190506020830392506118d0565b6001836020036101000a0380198251168184511680821785525050505050509050019150509081526020016040518091039020600061193485856111f3565b6000191660001916815260200190815260200160002060010160009054906101000a900473ffffffffffffffffffffffffffffffffffffffff1673ffffffffffffffffffffffffffffffffffffffff161415156119f9576040517f08c379a000000000000000000000000000000000000000000000000000000000815260040180806020018281038252600a8152602001807f6e6f74207369676e65720000000000000000000000000000000000000000000081525060200191505060405180910390fd5b6002846040518082805190602001908083835b602083101515611a315780518252602082019150602081019050602083039250611a0c565b6001836020036101000a03801982511681845116808217855250505050505090500191505090815260200160405180910390206000611a7086866111f3565b6000191660001916815260200190815260200160002060008082016000611a979190613505565b6001820160006101000a81549073ffffffffffffffffffffffffffffffffffffffff0219169055505050505050565b6000806000611af5847ffffffffffffffffffffffffffffffffffffffffffffffffffffffffefffffc2f612df6565b90507ffffffffffffffffffffffffffffffffffffffffffffffffffffffffefffffc2f801515611b2157fe5b81870992507ffffffffffffffffffffffffffffffffffffffffffffffffffffffffefffffc2f801515611b5057fe5b818609915050935093915050565b6060611b686111cd565b90506002816040518082805190602001908083835b602083101515611ba25780518252602082019150602081019050602083039250611b7d565b6001836020036101000a03801982511681845116808217855250505050505090500191505090815260200160405180910390206000611be183856111f3565b6000191660001916815260200190815260200160002060008082016000611c089190613505565b6001820160006101000a81549073ffffffffffffffffffffffffffffffffffffffff021916905550505050565b6000809054906101000a900473ffffffffffffffffffffffffffffffffffffffff1673ffffffffffffffffffffffffffffffffffffffff163373ffffffffffffffffffffffffffffffffffffffff16141515611c9057600080fd5b6000809054906101000a900473ffffffffffffffffffffffffffffffffffffffff1673ffffffffffffffffffffffffffffffffffffffff167ff8df31144d9c2f0f6b59d69b8b98abd5459d07f2742c4df920b25aae33c6482060405160405180910390a260008060006101000a81548173ffffffffffffffffffffffffffffffffffffffff021916908373ffffffffffffffffffffffffffffffffffffffff160217905550565b6000806000806000806000871415611d5a57611d51611f48565b95509550611e37565b6001871415611d6e57888895509550611e37565b6002871415611d8a57611d818989610d07565b95509550611e37565b88935087925060019150600190508895508794506000600288811515611dac57fe5b061415611dbb57600094508495505b6001879060020a900496505b6000871115611e2757611ddb84848461265d565b8094508195508296505050506001600288811515611df557fe5b061415611e1757611e0a848484898986612b0e565b8093508197508298505050505b6001879060020a90049650611dc7565b611e32868683611ac6565b955095505b50505050935093915050565b611e4b61354d565b7ffffffffffffffffffffffffffffffffffffffffffffffffffffffffefffffc2f801515611e7557fe5b6001600008816002600381101515611e8957fe5b6020020181815250507ffffffffffffffffffffffffffffffffffffffffffffffffffffffffefffffc2f801515611ebc57fe5b816002600381101515611ecb57fe5b60200201518409816000600381101515611ee157fe5b6020020181815250507ffffffffffffffffffffffffffffffffffffffffffffffffffffffffefffffc2f801515611f1457fe5b816002600381101515611f2357fe5b60200201518309816001600381101515611f3957fe5b60200201818152505092915050565b600080600080819150809050915091509091565b6000809054906101000a900473ffffffffffffffffffffffffffffffffffffffff1681565b60008073ffffffffffffffffffffffffffffffffffffffff163373ffffffffffffffffffffffffffffffffffffffff1614151515612027576040517f08c379a000000000000000000000000000000000000000000000000000000000815260040180806020018281038252600f8152602001807f696e76616c69642061646472657373000000000000000000000000000000000081525060200191505060405180910390fd5b3373ffffffffffffffffffffffffffffffffffffffff166001600033604051602001808273ffffffffffffffffffffffffffffffffffffffff1673ffffffffffffffffffffffffffffffffffffffff166c010000000000000000000000000281526014019150506040516020818303038152906040526040518082805190602001908083835b6020831015156120d257805182526020820191506020810190506020830392506120ad565b6001836020036101000a03801982511681845116808217855250505050505090500191505060405180910390206000191660001916815260200190815260200160002060000160009054906101000a900473ffffffffffffffffffffffffffffffffffffffff1673ffffffffffffffffffffffffffffffffffffffff161415156121c4576040517f08c379a000000000000000000000000000000000000000000000000000000000815260040180806020018281038252600a8152602001807f6e6f74206973737565720000000000000000000000000000000000000000000081525060200191505060405180910390fd5b6001600033604051602001808273ffffffffffffffffffffffffffffffffffffffff1673ffffffffffffffffffffffffffffffffffffffff166c010000000000000000000000000281526014019150506040516020818303038152906040526040518082805190602001908083835b6020831015156122585780518252602082019150602081019050602083039250612233565b6001836020036101000a03801982511681845116808217855250505050505090500191505060405180910390206000191660001916815260200190815260200160002060010160009054906101000a900473ffffffffffffffffffffffffffffffffffffffff1673ffffffffffffffffffffffffffffffffffffffff166122ec838560001916612ea690919063ffffffff16565b73ffffffffffffffffffffffffffffffffffffffff16141515612377576040517f08c379a00000000000000000000000000000000000000000000000000000000081526004018080602001828103825260188152602001807f6d73672e73656e646572206973206e6f7420697373756572000000000000000081525060200191505060405180910390fd5b8383836040516020018084805190602001908083835b6020831015156123b2578051825260208201915060208101905060208303925061238d565b6001836020036101000a038019825116818451168082178552505050505050905001836000191660001916815260200182805190602001908083835b60208310151561241357805182526020820191506020810190506020830392506123ee565b6001836020036101000a03801982511681845116808217855250505050505090500193505050506040516020818303038152906040526040518082805190602001908083835b60208310151561247e5780518252602082019150602081019050602083039250612459565b6001836020036101000a0380198251168184511680821785525050505050509050019150506040518091039020600190049050604080519081016040528085815260200160408051908101604052808581526020013373ffffffffffffffffffffffffffffffffffffffff1681525081525060036000838152602001908152602001600020600082015181600001908051906020019061251f929190613570565b506020820151816001016000820151816000019080519060200190612545929190613570565b5060208201518160010160006101000a81548173ffffffffffffffffffffffffffffffffffffffff021916908373ffffffffffffffffffffffffffffffffffffffff16021790555050509050507f5911601f2daf35e80e99ec8fd29361b5cd06b8844f98a82964c83f023f372a91816040518082815260200191505060405180910390a150505050565b600080831480156125e05750600082145b156125ee57600190506125f3565b600090505b92915050565b60016020528060005260406000206000915090508060000160009054906101000a900473ffffffffffffffffffffffffffffffffffffffff16908060010160009054906101000a900473ffffffffffffffffffffffffffffffffffffffff16905082565b60008060008060008060006126728a8a6125cf565b1561268a5761267f610dc7565b965096509650612b01565b7ffffffffffffffffffffffffffffffffffffffffffffffffffffffffefffffc2f8015156126b457fe5b888a0992507ffffffffffffffffffffffffffffffffffffffffffffffffffffffffefffffc2f8015156126e357fe5b6002840992507ffffffffffffffffffffffffffffffffffffffffffffffffffffffffefffffc2f80151561271357fe5b8a840991507ffffffffffffffffffffffffffffffffffffffffffffffffffffffffefffffc2f80151561274257fe5b89830991507ffffffffffffffffffffffffffffffffffffffffffffffffffffffffefffffc2f80151561277157fe5b6002830991507ffffffffffffffffffffffffffffffffffffffffffffffffffffffffefffffc2f8015156127a157fe5b8a8b0999507ffffffffffffffffffffffffffffffffffffffffffffffffffffffffefffffc2f8015156127d057fe5b60038b0993507ffffffffffffffffffffffffffffffffffffffffffffffffffffffffefffffc2f80151561280057fe5b88890997507ffffffffffffffffffffffffffffffffffffffffffffffffffffffffefffffc2f80151561282f57fe5b6000890997507ffffffffffffffffffffffffffffffffffffffffffffffffffffffffefffffc2f80151561285f57fe5b88850893507ffffffffffffffffffffffffffffffffffffffffffffffffffffffffefffffc2f80151561288e57fe5b84850990507ffffffffffffffffffffffffffffffffffffffffffffffffffffffffefffffc2f8015156128bd57fe5b8260020999507ffffffffffffffffffffffffffffffffffffffffffffffffffffffffefffffc2f8015156128ed57fe5b8a7ffffffffffffffffffffffffffffffffffffffffffffffffffffffffefffffc2f03820890507ffffffffffffffffffffffffffffffffffffffffffffffffffffffffefffffc2f80151561293e57fe5b817ffffffffffffffffffffffffffffffffffffffffffffffffffffffffefffffc2f03830899507ffffffffffffffffffffffffffffffffffffffffffffffffffffffffefffffc2f80151561298f57fe5b8a850999507ffffffffffffffffffffffffffffffffffffffffffffffffffffffffefffffc2f8015156129be57fe5b838a0998507ffffffffffffffffffffffffffffffffffffffffffffffffffffffffefffffc2f8015156129ed57fe5b898a0998507ffffffffffffffffffffffffffffffffffffffffffffffffffffffffefffffc2f801515612a1c57fe5b8960020998507ffffffffffffffffffffffffffffffffffffffffffffffffffffffffefffffc2f801515612a4c57fe5b897ffffffffffffffffffffffffffffffffffffffffffffffffffffffffefffffc2f038b0895507ffffffffffffffffffffffffffffffffffffffffffffffffffffffffefffffc2f801515612a9d57fe5b81840996507ffffffffffffffffffffffffffffffffffffffffffffffffffffffffefffffc2f801515612acc57fe5b83840994507ffffffffffffffffffffffffffffffffffffffffffffffffffffffffefffffc2f801515612afb57fe5b83860994505b5050505093509350939050565b6000806000806000806000612b238d8d6125cf565b15612b3657898989965096509650612c8e565b612b408a8a6125cf565b15612b53578c8c8c965096509650612c8e565b7ffffffffffffffffffffffffffffffffffffffffffffffffffffffffefffffc2f801515612b7d57fe5b888d0993507ffffffffffffffffffffffffffffffffffffffffffffffffffffffffefffffc2f801515612bac57fe5b8b8a0992507ffffffffffffffffffffffffffffffffffffffffffffffffffffffffefffffc2f801515612bdb57fe5b888e0991507ffffffffffffffffffffffffffffffffffffffffffffffffffffffffefffffc2f801515612c0a57fe5b8b8b09905080821415612c485782841415612c3557612c2a8d8d8d61265d565b965096509650612c8e565b612c3d610dc7565b965096509650612c8e565b612c817ffffffffffffffffffffffffffffffffffffffffffffffffffffffffefffffc2f801515612c7557fe5b898d0983838688612f9e565b8097508198508299505050505b5050505096509650969350505050565b6000809054906101000a900473ffffffffffffffffffffffffffffffffffffffff1673ffffffffffffffffffffffffffffffffffffffff163373ffffffffffffffffffffffffffffffffffffffff16141515612cf957600080fd5b612d0281613354565b50565b606060206040519080825280601f01601f191660200182016040528015612d3b5781602001602082028038833980820191505090505b509050816020820152919050565b6060600080600080865193508551840192506020601f885101811515612d6b57fe5b0491506020601f875101811515612d7e57fe5b04905060405183815260005b83811015612db1578060010160200289015181600101602002830152806001019050612d8a565b5060005b82811015612dde5780600101602002880151868260010160200201830152806001019050612db5565b50836020018101604052809550505050505092915050565b6000806000806000806000881480612e0d57508688145b80612e185750600087145b15612e265760009550612e9b565b86881115612e3d578688811515612e3957fe5b0697505b600193508692508791505b600082141515612e81578183811515612e5d57fe5b04905083848202860383848402860380955081965082975083985050505050612e48565b6000851215612e97578460000387039550612e9b565b8495505b505050505092915050565b60008060008060418551141515612ec05760009350612f95565b6020850151925060408501519150606085015160001a9050601b8160ff161015612eeb57601b810190505b601b8160ff1614158015612f035750601c8160ff1614155b15612f115760009350612f95565b600186828585604051600081526020016040526040518085600019166000191681526020018460ff1660ff1681526020018360001916600019168152602001826000191660001916815260200194505050505060206040516020810390808403906000865af1158015612f88573d6000803e3d6000fd5b5050506020604051035193505b50505092915050565b6000806000806000806000807ffffffffffffffffffffffffffffffffffffffffffffffffffffffffefffffc2f801515612fd457fe5b8a7ffffffffffffffffffffffffffffffffffffffffffffffffffffffffefffffc2f038a0890507ffffffffffffffffffffffffffffffffffffffffffffffffffffffffefffffc2f80151561302557fe5b8b7ffffffffffffffffffffffffffffffffffffffffffffffffffffffffefffffc2f038d0894507ffffffffffffffffffffffffffffffffffffffffffffffffffffffffefffffc2f80151561307657fe5b85860993507ffffffffffffffffffffffffffffffffffffffffffffffffffffffffefffffc2f8015156130a557fe5b81820991507ffffffffffffffffffffffffffffffffffffffffffffffffffffffffefffffc2f8015156130d457fe5b8d830991507ffffffffffffffffffffffffffffffffffffffffffffffffffffffffefffffc2f80151561310357fe5b8c8c089a507ffffffffffffffffffffffffffffffffffffffffffffffffffffffffefffffc2f80151561313257fe5b848c099a507ffffffffffffffffffffffffffffffffffffffffffffffffffffffffefffffc2f80151561316157fe5b8b7ffffffffffffffffffffffffffffffffffffffffffffffffffffffffefffffc2f03830891507ffffffffffffffffffffffffffffffffffffffffffffffffffffffffefffffc2f8015156131b257fe5b82860997507ffffffffffffffffffffffffffffffffffffffffffffffffffffffffefffffc2f8015156131e157fe5b85850992507ffffffffffffffffffffffffffffffffffffffffffffffffffffffffefffffc2f80151561321057fe5b848d099b507ffffffffffffffffffffffffffffffffffffffffffffffffffffffffefffffc2f80151561323f57fe5b827ffffffffffffffffffffffffffffffffffffffffffffffffffffffffefffffc2f038d089b507ffffffffffffffffffffffffffffffffffffffffffffffffffffffffefffffc2f80151561329057fe5b8c820990507ffffffffffffffffffffffffffffffffffffffffffffffffffffffffefffffc2f8015156132bf57fe5b838a0998507ffffffffffffffffffffffffffffffffffffffffffffffffffffffffefffffc2f8015156132ee57fe5b897ffffffffffffffffffffffffffffffffffffffffffffffffffffffffefffffc2f03820896507ffffffffffffffffffffffffffffffffffffffffffffffffffffffffefffffc2f80151561333f57fe5b8d840995505050505050955095509592505050565b600073ffffffffffffffffffffffffffffffffffffffff168173ffffffffffffffffffffffffffffffffffffffff161415151561339057600080fd5b8073ffffffffffffffffffffffffffffffffffffffff166000809054906101000a900473ffffffffffffffffffffffffffffffffffffffff1673ffffffffffffffffffffffffffffffffffffffff167f8be0079c531659141344cd1fd0a4f28419497f9722a3daafe3b4186f6b6457e060405160405180910390a3806000806101000a81548173ffffffffffffffffffffffffffffffffffffffff021916908373ffffffffffffffffffffffffffffffffffffffff16021790555050565b604080519081016040528060608152602001600073ffffffffffffffffffffffffffffffffffffffff1681525090565b828054600181600116156101000203166002900490600052602060002090601f016020900481019282601f106134b757805485556134f4565b828001600101855582156134f457600052602060002091601f016020900482015b828111156134f35782548255916001019190600101906134d8565b5b50905061350191906135f0565b5090565b50805460018160011615610100020316600290046000825580601f1061352b575061354a565b601f01602090049060005260206000209081019061354991906135f0565b5b50565b606060405190810160405280600390602082028038833980820191505090505090565b828054600181600116156101000203166002900490600052602060002090601f016020900481019282601f106135b157805160ff19168380011785556135df565b828001600101855582156135df579182015b828111156135de5782518255916020019190600101906135c3565b5b5090506135ec91906135f0565b5090565b61361291905b8082111561360e5760008160009055506001016135f6565b5090565b905600a165627a7a723058205f971fdd5674def693e8b152f77bb036bfae660b9118a1201af88f0d370c64410029",
  "source": "pragma solidity ^0.4.24;\n\nimport \"openzeppelin-solidity/contracts/ownership/Ownable.sol\";\nimport \"openzeppelin-solidity/contracts/ECRecovery.sol\";\nimport \"./Utils.sol\";\n\ncontract BIdentity is Ownable, Utils{\n  using ECRecovery for bytes32;\n\n  struct _Issuer {\n    address _dappAddr;\n    address _ethAddr;\n  }\n  struct _Signature {\n    bytes _signature;\n    address _signer;\n  }\n\n  struct _Approval {\n    bytes _convertedAddress;\n    _Signature _signature;\n  }\n\n  mapping(bytes32 => _Issuer) public issuers;\n  mapping(bytes => mapping(bytes32 => _Signature)) private signatures;\n  mapping(uint => _Approval) public approvals;\n\n  event NewIssuer(address issuer);\n  event RequestAdd(uint requestKey);\n\n  modifier onlyIssuer() {\n    require(msg.sender != address(0), \"invalid address\");\n    require(issuers[keccak256(abi.encodePacked(msg.sender))]._dappAddr == msg.sender, \"not issuer\");\n    _;\n  }\n\n  modifier onlySigner(bytes convertedAddress, bytes32 dataHash) {\n    require(msg.sender != address(0), \"invalid address\");\n    require(signatures[convertedAddress][getDataKey(convertedAddress, dataHash)]._signer == issuers[keccak256(abi.encodePacked(msg.sender))]._ethAddr, \"not signer\");\n    _;\n  }\n\n  function enrollIssuer(address dappIssuer, address ethIssuer) public onlyOwner {\n      issuers[keccak256(abi.encodePacked(dappIssuer))] = _Issuer(dappIssuer, ethIssuer);\n      emit NewIssuer(ethIssuer);\n  }\n\n  function requestAdd(bytes convertedAddress, bytes32 dataHash, bytes signature) public onlyIssuer {\n    require(dataHash.recover(signature) == issuers[keccak256(abi.encodePacked(msg.sender))]._ethAddr, \"msg.sender is not issuer\");\n    uint requestKey = uint(keccak256(abi.encodePacked(convertedAddress, dataHash, signature)));\n    approvals[requestKey] = _Approval(convertedAddress, _Signature(signature, msg.sender));\n    emit RequestAdd(requestKey);\n  }\n\n  function approveAdd(bytes32 dataHash, uint requestKey, bool isApprove) public {\n    bytes memory convertedAddress = getAddressKey();\n    require(keccak256(abi.encodePacked(approvals[requestKey]._convertedAddress)) == keccak256(abi.encodePacked(convertedAddress)), \"not identity owner\");\n    if(isApprove) {\n      signatures[convertedAddress][getDataKey(convertedAddress, dataHash)] = approvals[requestKey]._signature;\n    }\n    delete approvals[requestKey];\n  }\n\n  function getSignature(bytes convertedAddress, bytes32 dataHash) view public returns (bytes signature, address signer) {\n    _Signature memory sig = signatures[convertedAddress][getDataKey(convertedAddress, dataHash)];\n    return (sig._signature, sig._signer);\n  }\n\n  function revokeBySigner(bytes convertedAddress, bytes32 dataHash) public onlySigner(convertedAddress, dataHash) {\n    delete signatures[convertedAddress][getDataKey(convertedAddress, dataHash)];\n  }\n\n  function revokeByOwner(bytes32 dataHash) public {\n    bytes memory convertedAddress = getAddressKey();\n    delete signatures[convertedAddress][getDataKey(convertedAddress, dataHash)];\n  }\n}\n",
  "sourcePath": "/home/kim/workspace/ProjectB/TruffLeBIdentity/contracts/BIdentity.sol",
  "compiler": {
    "name": "solc",
    "version": "0.4.25+commit.59dbf8f1.Emscripten.clang"
  },
  "schemaVersion": "2.0.1",
  "updatedAt": "2020-01-29T08:34:41.762Z"
}