{
  "contractName": "EllipticCurve",
  "abi": [
    {
      "constant": true,
      "inputs": [
        {
          "name": "x0",
          "type": "uint256"
        },
        {
          "name": "y0",
          "type": "uint256"
        }
      ],
      "name": "toProjectivePoint",
      "outputs": [
        {
          "name": "P",
          "type": "uint256[3]"
        }
      ],
      "payable": false,
      "stateMutability": "pure",
      "type": "function"
    },
    {
      "constant": true,
      "inputs": [
        {
          "name": "x0",
          "type": "uint256"
        },
        {
          "name": "y0",
          "type": "uint256"
        },
        {
          "name": "z0",
          "type": "uint256"
        }
      ],
      "name": "toAffinePoint",
      "outputs": [
        {
          "name": "x1",
          "type": "uint256"
        },
        {
          "name": "y1",
          "type": "uint256"
        }
      ],
      "payable": false,
      "stateMutability": "pure",
      "type": "function"
    },
    {
      "constant": true,
      "inputs": [],
      "name": "zeroProj",
      "outputs": [
        {
          "name": "x",
          "type": "uint256"
        },
        {
          "name": "y",
          "type": "uint256"
        },
        {
          "name": "z",
          "type": "uint256"
        }
      ],
      "payable": false,
      "stateMutability": "pure",
      "type": "function"
    },
    {
      "constant": true,
      "inputs": [],
      "name": "zeroAffine",
      "outputs": [
        {
          "name": "x",
          "type": "uint256"
        },
        {
          "name": "y",
          "type": "uint256"
        }
      ],
      "payable": false,
      "stateMutability": "pure",
      "type": "function"
    },
    {
      "constant": true,
      "inputs": [
        {
          "name": "x0",
          "type": "uint256"
        },
        {
          "name": "y0",
          "type": "uint256"
        }
      ],
      "name": "isZeroCurve",
      "outputs": [
        {
          "name": "isZero",
          "type": "bool"
        }
      ],
      "payable": false,
      "stateMutability": "pure",
      "type": "function"
    },
    {
      "constant": true,
      "inputs": [
        {
          "name": "x0",
          "type": "uint256"
        },
        {
          "name": "y0",
          "type": "uint256"
        },
        {
          "name": "z0",
          "type": "uint256"
        }
      ],
      "name": "twiceProj",
      "outputs": [
        {
          "name": "x1",
          "type": "uint256"
        },
        {
          "name": "y1",
          "type": "uint256"
        },
        {
          "name": "z1",
          "type": "uint256"
        }
      ],
      "payable": false,
      "stateMutability": "pure",
      "type": "function"
    },
    {
      "constant": true,
      "inputs": [
        {
          "name": "x0",
          "type": "uint256"
        },
        {
          "name": "y0",
          "type": "uint256"
        },
        {
          "name": "z0",
          "type": "uint256"
        },
        {
          "name": "x1",
          "type": "uint256"
        },
        {
          "name": "y1",
          "type": "uint256"
        },
        {
          "name": "z1",
          "type": "uint256"
        }
      ],
      "name": "addProj",
      "outputs": [
        {
          "name": "x2",
          "type": "uint256"
        },
        {
          "name": "y2",
          "type": "uint256"
        },
        {
          "name": "z2",
          "type": "uint256"
        }
      ],
      "payable": false,
      "stateMutability": "pure",
      "type": "function"
    },
    {
      "constant": true,
      "inputs": [
        {
          "name": "x0",
          "type": "uint256"
        },
        {
          "name": "y0",
          "type": "uint256"
        }
      ],
      "name": "twice",
      "outputs": [
        {
          "name": "",
          "type": "uint256"
        },
        {
          "name": "",
          "type": "uint256"
        }
      ],
      "payable": false,
      "stateMutability": "pure",
      "type": "function"
    },
    {
      "constant": true,
      "inputs": [
        {
          "name": "x0",
          "type": "uint256"
        },
        {
          "name": "y0",
          "type": "uint256"
        },
        {
          "name": "scalar",
          "type": "uint256"
        }
      ],
      "name": "multiplyScalar",
      "outputs": [
        {
          "name": "x1",
          "type": "uint256"
        },
        {
          "name": "y1",
          "type": "uint256"
        }
      ],
      "payable": false,
      "stateMutability": "pure",
      "type": "function"
    },
    {
      "constant": true,
      "inputs": [
        {
          "name": "scalar",
          "type": "uint256"
        }
      ],
      "name": "multipleGeneratorByScalar",
      "outputs": [
        {
          "name": "",
          "type": "bytes"
        }
      ],
      "payable": false,
      "stateMutability": "pure",
      "type": "function"
    }
  ],
  "bytecode": "0x608060405234801561001057600080fd5b50611416806100206000396000f3006080604052600436106100a4576000357c0100000000000000000000000000000000000000000000000000000000900463ffffffff16806309d3ef31146100a95780630afb4ddc146100fb57806314c67060146101a1578063675ca043146101da57806372fb4a14146102365780637ec8da8d1461029257806384dfba4614610305578063c30cfa2d14610337578063c80edca414610386578063f214aba0146103e9575b600080fd5b3480156100b557600080fd5b506100de600480360381019080803590602001909291908035906020019092919050505061046a565b604051808381526020018281526020019250505060405180910390f35b34801561010757600080fd5b506101266004803603810190808035906020019092919050505061049e565b6040518080602001828103825283818151815260200191508051906020019080838360005b8381101561016657808201518184015260208101905061014b565b50505050905090810190601f1680156101935780820380516001836020036101000a031916815260200191505b509250505060405180910390f35b3480156101ad57600080fd5b506101b661052a565b60405180848152602001838152602001828152602001935050505060405180910390f35b3480156101e657600080fd5b50610219600480360381019080803590602001909291908035906020019092919080359060200190929190505050610548565b604051808381526020018281526020019250505060405180910390f35b34801561024257600080fd5b506102756004803603810190808035906020019092919080359060200190929190803590602001909291905050506105e0565b604051808381526020018281526020019250505060405180910390f35b34801561029e57600080fd5b506102c760048036038101908080359060200190929190803590602001909291905050506106ec565b6040518082600360200280838360005b838110156102f25780820151818401526020810190506102d7565b5050505090500191505060405180910390f35b34801561031157600080fd5b5061031a6107f1565b604051808381526020018281526020019250505060405180910390f35b34801561034357600080fd5b5061036c6004803603810190808035906020019092919080359060200190929190505050610805565b604051808215151515815260200191505060405180910390f35b34801561039257600080fd5b506103c560048036038101908080359060200190929190803590602001909291908035906020019092919050505061082f565b60405180848152602001838152602001828152602001935050505060405180910390f35b3480156103f557600080fd5b50610446600480360381019080803590602001909291908035906020019092919080359060200190929190803590602001909291908035906020019092919080359060200190929190505050610ce0565b60405180848152602001838152602001828152602001935050505060405180910390f35b600080600061047b8585600161082f565b809350819650829750505050610492858583610548565b92509250509250929050565b606060008060608060606104f37f79be667ef9dcbbac55a06295ce870b07029bfcdb2dce28d959f2815b16f817987f483ada7726a3c4655da4fbfc0e1108a8fd17b448a68554199c47d08ffb10d4b8896105e0565b809550819650505061050485610e70565b925061050f84610e70565b915061051b8383610eb4565b90508095505050505050919050565b60008060008060016000829250819150809050925092509250909192565b6000806000610577847ffffffffffffffffffffffffffffffffffffffffffffffffffffffffefffffc2f610f61565b90507ffffffffffffffffffffffffffffffffffffffffffffffffffffffffefffffc2f8015156105a357fe5b81870992507ffffffffffffffffffffffffffffffffffffffffffffffffffffffffefffffc2f8015156105d257fe5b818609915050935093915050565b6000806000806000806000871415610603576105fa6107f1565b955095506106e0565b6001871415610617578888955095506106e0565b60028714156106335761062a898961046a565b955095506106e0565b8893508792506001915060019050889550879450600060028881151561065557fe5b06141561066457600094508495505b6001879060020a900496505b60008711156106d05761068484848461082f565b809450819550829650505050600160028881151561069e57fe5b0614156106c0576106b3848484898986610ce0565b8093508197508298505050505b6001879060020a90049650610670565b6106db868683610548565b955095505b50505050935093915050565b6106f46113c7565b7ffffffffffffffffffffffffffffffffffffffffffffffffffffffffefffffc2f80151561071e57fe5b600160000881600260038110151561073257fe5b6020020181815250507ffffffffffffffffffffffffffffffffffffffffffffffffffffffffefffffc2f80151561076557fe5b81600260038110151561077457fe5b6020020151840981600060038110151561078a57fe5b6020020181815250507ffffffffffffffffffffffffffffffffffffffffffffffffffffffffefffffc2f8015156107bd57fe5b8160026003811015156107cc57fe5b602002015183098160016003811015156107e257fe5b60200201818152505092915050565b600080600080819150809050915091509091565b600080831480156108165750600082145b156108245760019050610829565b600090505b92915050565b60008060008060008060006108448a8a610805565b1561085c5761085161052a565b965096509650610cd3565b7ffffffffffffffffffffffffffffffffffffffffffffffffffffffffefffffc2f80151561088657fe5b888a0992507ffffffffffffffffffffffffffffffffffffffffffffffffffffffffefffffc2f8015156108b557fe5b6002840992507ffffffffffffffffffffffffffffffffffffffffffffffffffffffffefffffc2f8015156108e557fe5b8a840991507ffffffffffffffffffffffffffffffffffffffffffffffffffffffffefffffc2f80151561091457fe5b89830991507ffffffffffffffffffffffffffffffffffffffffffffffffffffffffefffffc2f80151561094357fe5b6002830991507ffffffffffffffffffffffffffffffffffffffffffffffffffffffffefffffc2f80151561097357fe5b8a8b0999507ffffffffffffffffffffffffffffffffffffffffffffffffffffffffefffffc2f8015156109a257fe5b60038b0993507ffffffffffffffffffffffffffffffffffffffffffffffffffffffffefffffc2f8015156109d257fe5b88890997507ffffffffffffffffffffffffffffffffffffffffffffffffffffffffefffffc2f801515610a0157fe5b6000890997507ffffffffffffffffffffffffffffffffffffffffffffffffffffffffefffffc2f801515610a3157fe5b88850893507ffffffffffffffffffffffffffffffffffffffffffffffffffffffffefffffc2f801515610a6057fe5b84850990507ffffffffffffffffffffffffffffffffffffffffffffffffffffffffefffffc2f801515610a8f57fe5b8260020999507ffffffffffffffffffffffffffffffffffffffffffffffffffffffffefffffc2f801515610abf57fe5b8a7ffffffffffffffffffffffffffffffffffffffffffffffffffffffffefffffc2f03820890507ffffffffffffffffffffffffffffffffffffffffffffffffffffffffefffffc2f801515610b1057fe5b817ffffffffffffffffffffffffffffffffffffffffffffffffffffffffefffffc2f03830899507ffffffffffffffffffffffffffffffffffffffffffffffffffffffffefffffc2f801515610b6157fe5b8a850999507ffffffffffffffffffffffffffffffffffffffffffffffffffffffffefffffc2f801515610b9057fe5b838a0998507ffffffffffffffffffffffffffffffffffffffffffffffffffffffffefffffc2f801515610bbf57fe5b898a0998507ffffffffffffffffffffffffffffffffffffffffffffffffffffffffefffffc2f801515610bee57fe5b8960020998507ffffffffffffffffffffffffffffffffffffffffffffffffffffffffefffffc2f801515610c1e57fe5b897ffffffffffffffffffffffffffffffffffffffffffffffffffffffffefffffc2f038b0895507ffffffffffffffffffffffffffffffffffffffffffffffffffffffffefffffc2f801515610c6f57fe5b81840996507ffffffffffffffffffffffffffffffffffffffffffffffffffffffffefffffc2f801515610c9e57fe5b83840994507ffffffffffffffffffffffffffffffffffffffffffffffffffffffffefffffc2f801515610ccd57fe5b83860994505b5050505093509350939050565b6000806000806000806000610cf58d8d610805565b15610d0857898989965096509650610e60565b610d128a8a610805565b15610d25578c8c8c965096509650610e60565b7ffffffffffffffffffffffffffffffffffffffffffffffffffffffffefffffc2f801515610d4f57fe5b888d0993507ffffffffffffffffffffffffffffffffffffffffffffffffffffffffefffffc2f801515610d7e57fe5b8b8a0992507ffffffffffffffffffffffffffffffffffffffffffffffffffffffffefffffc2f801515610dad57fe5b888e0991507ffffffffffffffffffffffffffffffffffffffffffffffffffffffffefffffc2f801515610ddc57fe5b8b8b09905080821415610e1a5782841415610e0757610dfc8d8d8d61082f565b965096509650610e60565b610e0f61052a565b965096509650610e60565b610e537ffffffffffffffffffffffffffffffffffffffffffffffffffffffffefffffc2f801515610e4757fe5b898d0983838688611011565b8097508198508299505050505b5050505096509650969350505050565b606060206040519080825280601f01601f191660200182016040528015610ea65781602001602082028038833980820191505090505b509050816020820152919050565b6060600080600080865193508551840192506020601f885101811515610ed657fe5b0491506020601f875101811515610ee957fe5b04905060405183815260005b83811015610f1c578060010160200289015181600101602002830152806001019050610ef5565b5060005b82811015610f495780600101602002880151868260010160200201830152806001019050610f20565b50836020018101604052809550505050505092915050565b6000806000806000806000881480610f7857508688145b80610f835750600087145b15610f915760009550611006565b86881115610fa8578688811515610fa457fe5b0697505b600193508692508791505b600082141515610fec578183811515610fc857fe5b04905083848202860383848402860380955081965082975083985050505050610fb3565b6000851215611002578460000387039550611006565b8495505b505050505092915050565b6000806000806000806000807ffffffffffffffffffffffffffffffffffffffffffffffffffffffffefffffc2f80151561104757fe5b8a7ffffffffffffffffffffffffffffffffffffffffffffffffffffffffefffffc2f038a0890507ffffffffffffffffffffffffffffffffffffffffffffffffffffffffefffffc2f80151561109857fe5b8b7ffffffffffffffffffffffffffffffffffffffffffffffffffffffffefffffc2f038d0894507ffffffffffffffffffffffffffffffffffffffffffffffffffffffffefffffc2f8015156110e957fe5b85860993507ffffffffffffffffffffffffffffffffffffffffffffffffffffffffefffffc2f80151561111857fe5b81820991507ffffffffffffffffffffffffffffffffffffffffffffffffffffffffefffffc2f80151561114757fe5b8d830991507ffffffffffffffffffffffffffffffffffffffffffffffffffffffffefffffc2f80151561117657fe5b8c8c089a507ffffffffffffffffffffffffffffffffffffffffffffffffffffffffefffffc2f8015156111a557fe5b848c099a507ffffffffffffffffffffffffffffffffffffffffffffffffffffffffefffffc2f8015156111d457fe5b8b7ffffffffffffffffffffffffffffffffffffffffffffffffffffffffefffffc2f03830891507ffffffffffffffffffffffffffffffffffffffffffffffffffffffffefffffc2f80151561122557fe5b82860997507ffffffffffffffffffffffffffffffffffffffffffffffffffffffffefffffc2f80151561125457fe5b85850992507ffffffffffffffffffffffffffffffffffffffffffffffffffffffffefffffc2f80151561128357fe5b848d099b507ffffffffffffffffffffffffffffffffffffffffffffffffffffffffefffffc2f8015156112b257fe5b827ffffffffffffffffffffffffffffffffffffffffffffffffffffffffefffffc2f038d089b507ffffffffffffffffffffffffffffffffffffffffffffffffffffffffefffffc2f80151561130357fe5b8c820990507ffffffffffffffffffffffffffffffffffffffffffffffffffffffffefffffc2f80151561133257fe5b838a0998507ffffffffffffffffffffffffffffffffffffffffffffffffffffffffefffffc2f80151561136157fe5b897ffffffffffffffffffffffffffffffffffffffffffffffffffffffffefffffc2f03820896507ffffffffffffffffffffffffffffffffffffffffffffffffffffffffefffffc2f8015156113b257fe5b8d840995505050505050955095509592505050565b6060604051908101604052806003906020820280388339808201915050905050905600a165627a7a7230582025ede91d5a31bedc0f65d8bafb33a31244bab38ff91ed89fa8ea2df7d412aa6b0029",
  "source": "// pragma solidity ^0.5.0;\npragma solidity ^0.4.24;\n\n/**\n * @title   EllipticCurve\n *\n * @author  Tilman Drerup;\n *\n * @notice  Implements elliptic curve math; Parametrized for SECP256R1.\n *\n *          Includes components of code by Andreas Olofsson, Alexander Vlasov\n *          (https://github.com/BANKEX/CurveArithmetics), and Avi Asayag\n *          (https://github.com/orbs-network/elliptic-curve-solidity)\n *\n * @dev     NOTE: To disambiguate public keys when verifying signatures, activate\n *          condition 'rs[1] > lowSmax' in validateSignature().\n */\ncontract EllipticCurve {\n\n    // Set parameters for curve.\n    uint constant a = 0;\n    uint constant b = 7;\n    uint constant gx = 0x79BE667EF9DCBBAC55A06295CE870B07029BFCDB2DCE28D959F2815B16F81798;\n    uint constant gy = 0x483ADA7726A3C4655DA4FBFC0E1108A8FD17B448A68554199C47D08FFB10D4B8;\n    uint constant p = 0xFFFFFFFFFFFFFFFFFFFFFFFFFFFFFFFFFFFFFFFFFFFFFFFFFFFFFFFEFFFFFC2F;\n    uint constant n = 0xFFFFFFFFFFFFFFFFFFFFFFFFFFFFFFFEBAAEDCE6AF48A03BBFD25E8CD0364141;\n\n    uint constant lowSmax = 0x7FFFFFFFFFFFFFFFFFFFFFFFFFFFFFFF5D576E7357A4501DDFE92F46681B20A0;\n\n    function toBytes(uint x) pure internal returns (bytes bb) {\n      bb = new bytes(32);\n      assembly {\n        mstore(add(bb, 32), x)\n      }\n    }\n\n    function MergeBytes(bytes memory aa, bytes memory bb) pure internal returns (bytes memory c) {\n    uint alen = aa.length;\n    uint totallen = alen + bb.length;\n    uint loopsa = (aa.length + 31) / 32;\n    uint loopsb = (bb.length + 31) / 32;\n    assembly {\n        let m := mload(0x40)\n        mstore(m, totallen)\n        for {  let i := 0 } lt(i, loopsa) { i := add(1, i) } { mstore(add(m, mul(32, add(1, i))), mload(add(aa, mul(32, add(1, i))))) }\n        for {  let i := 0 } lt(i, loopsb) { i := add(1, i) } { mstore(add(m, add(mul(32, add(1, i)), alen)), mload(add(bb, mul(32, add(1, i))))) }\n        mstore(0x40, add(m, add(32, totallen)))\n        c := m\n    }\n}\n\n    /**\n     * @dev Inverse of u in the field of modulo m.\n     */\n    function inverseMod(uint u, uint m) internal pure\n        returns (uint)\n    {\n        if (u == 0 || u == m || m == 0)\n            return 0;\n        if (u > m)\n            u = u % m;\n\n        int t1;\n        int t2 = 1;\n        uint r1 = m;\n        uint r2 = u;\n        uint q;\n\n        while (r2 != 0) {\n            q = r1 / r2;\n            (t1, t2, r1, r2) = (t2, t1 - int(q) * t2, r2, r1 - q * r2);\n        }\n\n        if (t1 < 0)\n            return (m - uint(-t1));\n\n        return uint(t1);\n    }\n\n    /**\n     * @dev Transform affine coordinates into projective coordinates.\n     */\n    function toProjectivePoint(uint x0, uint y0) public pure\n        returns (uint[3] memory P)\n    {\n        P[2] = addmod(0, 1, p);\n        P[0] = mulmod(x0, P[2], p);\n        P[1] = mulmod(y0, P[2], p);\n    }\n\n    /**\n     * @dev Transform from projective to affine coordinates.\n     */\n    function toAffinePoint(uint x0, uint y0, uint z0) public pure\n        returns (uint x1, uint y1)\n    {\n        uint z0Inv;\n        z0Inv = inverseMod(z0, p);\n        x1 = mulmod(x0, z0Inv, p);\n        y1 = mulmod(y0, z0Inv, p);\n    }\n\n    /**\n     * @dev Return the zero curve in projective coordinates.\n     */\n    function zeroProj() public pure\n        returns (uint x, uint y, uint z)\n    {\n        return (0, 1, 0);\n    }\n\n    /**\n     * @dev Return the zero curve in affine coordinates.\n     */\n    function zeroAffine() public pure\n        returns (uint x, uint y)\n    {\n        return (0, 0);\n    }\n\n    /**\n     * @dev Check if the curve is the zero curve.\n     */\n    function isZeroCurve(uint x0, uint y0) public pure\n        returns (bool isZero)\n    {\n        if(x0 == 0 && y0 == 0) {\n            return true;\n        }\n        return false;\n    }\n\n    /**\n     * @dev Double an elliptic curve point in projective coordinates. See\n     * https://www.nayuki.io/page/elliptic-curve-point-addition-in-projective-coordinates\n     */\n    function twiceProj(uint x0, uint y0, uint z0) public pure\n        returns (uint x1, uint y1, uint z1)\n    {\n        uint t;\n        uint u;\n        uint v;\n        uint w;\n\n        if(isZeroCurve(x0, y0)) {\n            return zeroProj();\n        }\n\n        u = mulmod(y0, z0, p);\n        u = mulmod(u, 2, p);\n\n        v = mulmod(u, x0, p);\n        v = mulmod(v, y0, p);\n        v = mulmod(v, 2, p);\n\n        x0 = mulmod(x0, x0, p);\n        t = mulmod(x0, 3, p);\n\n        z0 = mulmod(z0, z0, p);\n        z0 = mulmod(z0, a, p);\n        t = addmod(t, z0, p);\n\n        w = mulmod(t, t, p);\n        x0 = mulmod(2, v, p);\n        w = addmod(w, p-x0, p);\n\n        x0 = addmod(v, p-w, p);\n        x0 = mulmod(t, x0, p);\n        y0 = mulmod(y0, u, p);\n        y0 = mulmod(y0, y0, p);\n        y0 = mulmod(2, y0, p);\n        y1 = addmod(x0, p-y0, p);\n\n        x1 = mulmod(u, w, p);\n\n        z1 = mulmod(u, u, p);\n        z1 = mulmod(z1, u, p);\n    }\n\n    /**\n     * @dev Add two elliptic curve points in projective coordinates. See\n     * https://www.nayuki.io/page/elliptic-curve-point-addition-in-projective-coordinates\n     */\n    function addProj(uint x0, uint y0, uint z0, uint x1, uint y1, uint z1) public pure\n        returns (uint x2, uint y2, uint z2)\n    {\n        uint t0;\n        uint t1;\n        uint u0;\n        uint u1;\n\n        if (isZeroCurve(x0, y0)) {\n            return (x1, y1, z1);\n        }\n        else if (isZeroCurve(x1, y1)) {\n            return (x0, y0, z0);\n        }\n\n        t0 = mulmod(y0, z1, p);\n        t1 = mulmod(y1, z0, p);\n\n        u0 = mulmod(x0, z1, p);\n        u1 = mulmod(x1, z0, p);\n\n        if (u0 == u1) {\n            if (t0 == t1) {\n                return twiceProj(x0, y0, z0);\n            }\n            else {\n                return zeroProj();\n            }\n        }\n\n        (x2, y2, z2) = addProj2(mulmod(z0, z1, p), u0, u1, t1, t0);\n    }\n\n    /**\n     * @dev Helper function that splits addProj to avoid too many local variables.\n     */\n    function addProj2(uint v, uint u0, uint u1, uint t1, uint t0) private pure\n        returns (uint x2, uint y2, uint z2)\n    {\n        uint u;\n        uint u2;\n        uint u3;\n        uint w;\n        uint t;\n\n        t = addmod(t0, p-t1, p);\n        u = addmod(u0, p-u1, p);\n        u2 = mulmod(u, u, p);\n\n        w = mulmod(t, t, p);\n        w = mulmod(w, v, p);\n        u1 = addmod(u1, u0, p);\n        u1 = mulmod(u1, u2, p);\n        w = addmod(w, p-u1, p);\n\n        x2 = mulmod(u, w, p);\n\n        u3 = mulmod(u2, u, p);\n        u0 = mulmod(u0, u2, p);\n        u0 = addmod(u0, p-w, p);\n        t = mulmod(t, u0, p);\n        t0 = mulmod(t0, u3, p);\n\n        y2 = addmod(t, p-t0, p);\n\n        z2 = mulmod(u3, v, p);\n    }\n\n    /**\n     * @dev Double an elliptic curve point in affine coordinates.\n     */\n    function twice(uint x0, uint y0) public pure\n        returns (uint, uint)\n    {\n        uint z0;\n\n        (x0, y0, z0) = twiceProj(x0, y0, 1);\n\n        return toAffinePoint(x0, y0, z0);\n    }\n\n    /**\n     * @dev Multiply an elliptic curve point by a scalar.\n     */\n    function multiplyScalar(uint x0, uint y0, uint scalar) public pure\n        returns (uint x1, uint y1)\n    {\n        if(scalar == 0) {\n            return zeroAffine();\n        }\n        else if (scalar == 1) {\n            return (x0, y0);\n        }\n        else if (scalar == 2) {\n            return twice(x0, y0);\n        }\n\n        uint base2X = x0;\n        uint base2Y = y0;\n        uint base2Z = 1;\n        uint z1 = 1;\n        x1 = x0;\n        y1 = y0;\n\n        if(scalar%2 == 0) {\n            x1 = y1 = 0;\n        }\n\n        scalar = scalar >> 1;\n\n        while(scalar > 0) {\n            (base2X, base2Y, base2Z) = twiceProj(base2X, base2Y, base2Z);\n\n            if(scalar%2 == 1) {\n                (x1, y1, z1) = addProj(base2X, base2Y, base2Z, x1, y1, z1);\n            }\n\n            scalar = scalar >> 1;\n        }\n\n        return toAffinePoint(x1, y1, z1);\n    }\n\n    /**\n     * @dev Multiply the curve's generator point by a scalar.\n     */\n    function multipleGeneratorByScalar(uint scalar) pure public returns (bytes memory)\n    {\n        uint xt;\n        uint yt;\n        (xt, yt) = multiplyScalar(gx, gy, scalar);\n\n        bytes memory xb = toBytes(xt);\n        bytes memory yb = toBytes(yt);\n\n        bytes memory merge = MergeBytes(xb, yb);\n        return merge;\n    }\n}\n",
  "sourcePath": "/home/kim/workspace/ProjectB/TruffLeBIdentity/contracts/EllipticCurve.sol",
  "compiler": {
    "name": "solc",
    "version": "0.4.25+commit.59dbf8f1.Emscripten.clang"
  },
  "schemaVersion": "2.0.2",
  "updatedAt": "2020-01-29T08:28:56.742Z"
}