{
  "contractName": "Utils",
  "abi": [
    {
      "constant": true,
      "inputs": [
        {
          "name": "x0",
          "type": "uint256"
        },
        {
          "name": "y0",
          "type": "uint256"
        }
      ],
      "name": "twice",
      "outputs": [
        {
          "name": "",
          "type": "uint256"
        },
        {
          "name": "",
          "type": "uint256"
        }
      ],
      "payable": false,
      "stateMutability": "pure",
      "type": "function"
    },
    {
      "constant": true,
      "inputs": [
        {
          "name": "scalar",
          "type": "uint256"
        }
      ],
      "name": "multipleGeneratorByScalar",
      "outputs": [
        {
          "name": "",
          "type": "bytes"
        }
      ],
      "payable": false,
      "stateMutability": "pure",
      "type": "function"
    },
    {
      "constant": true,
      "inputs": [],
      "name": "zeroProj",
      "outputs": [
        {
          "name": "x",
          "type": "uint256"
        },
        {
          "name": "y",
          "type": "uint256"
        },
        {
          "name": "z",
          "type": "uint256"
        }
      ],
      "payable": false,
      "stateMutability": "pure",
      "type": "function"
    },
    {
      "constant": true,
      "inputs": [
        {
          "name": "x0",
          "type": "uint256"
        },
        {
          "name": "y0",
          "type": "uint256"
        },
        {
          "name": "z0",
          "type": "uint256"
        }
      ],
      "name": "toAffinePoint",
      "outputs": [
        {
          "name": "x1",
          "type": "uint256"
        },
        {
          "name": "y1",
          "type": "uint256"
        }
      ],
      "payable": false,
      "stateMutability": "pure",
      "type": "function"
    },
    {
      "constant": true,
      "inputs": [
        {
          "name": "x0",
          "type": "uint256"
        },
        {
          "name": "y0",
          "type": "uint256"
        },
        {
          "name": "scalar",
          "type": "uint256"
        }
      ],
      "name": "multiplyScalar",
      "outputs": [
        {
          "name": "x1",
          "type": "uint256"
        },
        {
          "name": "y1",
          "type": "uint256"
        }
      ],
      "payable": false,
      "stateMutability": "pure",
      "type": "function"
    },
    {
      "constant": true,
      "inputs": [
        {
          "name": "x0",
          "type": "uint256"
        },
        {
          "name": "y0",
          "type": "uint256"
        }
      ],
      "name": "toProjectivePoint",
      "outputs": [
        {
          "name": "P",
          "type": "uint256[3]"
        }
      ],
      "payable": false,
      "stateMutability": "pure",
      "type": "function"
    },
    {
      "constant": true,
      "inputs": [],
      "name": "zeroAffine",
      "outputs": [
        {
          "name": "x",
          "type": "uint256"
        },
        {
          "name": "y",
          "type": "uint256"
        }
      ],
      "payable": false,
      "stateMutability": "pure",
      "type": "function"
    },
    {
      "constant": true,
      "inputs": [
        {
          "name": "x0",
          "type": "uint256"
        },
        {
          "name": "y0",
          "type": "uint256"
        }
      ],
      "name": "isZeroCurve",
      "outputs": [
        {
          "name": "isZero",
          "type": "bool"
        }
      ],
      "payable": false,
      "stateMutability": "pure",
      "type": "function"
    },
    {
      "constant": true,
      "inputs": [
        {
          "name": "x0",
          "type": "uint256"
        },
        {
          "name": "y0",
          "type": "uint256"
        },
        {
          "name": "z0",
          "type": "uint256"
        }
      ],
      "name": "twiceProj",
      "outputs": [
        {
          "name": "x1",
          "type": "uint256"
        },
        {
          "name": "y1",
          "type": "uint256"
        },
        {
          "name": "z1",
          "type": "uint256"
        }
      ],
      "payable": false,
      "stateMutability": "pure",
      "type": "function"
    },
    {
      "constant": true,
      "inputs": [
        {
          "name": "x0",
          "type": "uint256"
        },
        {
          "name": "y0",
          "type": "uint256"
        },
        {
          "name": "z0",
          "type": "uint256"
        },
        {
          "name": "x1",
          "type": "uint256"
        },
        {
          "name": "y1",
          "type": "uint256"
        },
        {
          "name": "z1",
          "type": "uint256"
        }
      ],
      "name": "addProj",
      "outputs": [
        {
          "name": "x2",
          "type": "uint256"
        },
        {
          "name": "y2",
          "type": "uint256"
        },
        {
          "name": "z2",
          "type": "uint256"
        }
      ],
      "payable": false,
      "stateMutability": "pure",
      "type": "function"
    },
    {
      "constant": true,
      "inputs": [],
      "name": "getAddressKey",
      "outputs": [
        {
          "name": "key",
          "type": "bytes"
        }
      ],
      "payable": false,
      "stateMutability": "view",
      "type": "function"
    },
    {
      "constant": true,
      "inputs": [
        {
          "name": "convertedAddress",
          "type": "bytes"
        },
        {
          "name": "dataHash",
          "type": "bytes32"
        }
      ],
      "name": "getDataKey",
      "outputs": [
        {
          "name": "key",
          "type": "bytes32"
        }
      ],
      "payable": false,
      "stateMutability": "pure",
      "type": "function"
    }
  ],
  "bytecode": "0x608060405234801561001057600080fd5b5061165e806100206000396000f3006080604052600436106100ba576000357c0100000000000000000000000000000000000000000000000000000000900463ffffffff16806309d3ef31146100bf5780630afb4ddc1461011157806314c67060146101b75780631fa640ca146101f05780634c35c9be14610280578063675ca0431461031357806372fb4a141461036f5780637ec8da8d146103cb57806384dfba461461043e578063c30cfa2d14610470578063c80edca4146104bf578063f214aba014610522575b600080fd5b3480156100cb57600080fd5b506100f460048036038101908080359060200190929190803590602001909291905050506105a3565b604051808381526020018281526020019250505060405180910390f35b34801561011d57600080fd5b5061013c600480360381019080803590602001909291905050506105d7565b6040518080602001828103825283818151815260200191508051906020019080838360005b8381101561017c578082015181840152602081019050610161565b50505050905090810190601f1680156101a95780820380516001836020036101000a031916815260200191505b509250505060405180910390f35b3480156101c357600080fd5b506101cc610663565b60405180848152602001838152602001828152602001935050505060405180910390f35b3480156101fc57600080fd5b50610205610681565b6040518080602001828103825283818151815260200191508051906020019080838360005b8381101561024557808201518184015260208101905061022a565b50505050905090810190601f1680156102725780820380516001836020036101000a031916815260200191505b509250505060405180910390f35b34801561028c57600080fd5b506102f5600480360381019080803590602001908201803590602001908080601f016020809104026020016040519081016040528093929190818152602001838380828437820191505050505050919291929080356000191690602001909291905050506106a7565b60405180826000191660001916815260200191505060405180910390f35b34801561031f57600080fd5b50610352600480360381019080803590602001909291908035906020019092919080359060200190929190505050610790565b604051808381526020018281526020019250505060405180910390f35b34801561037b57600080fd5b506103ae600480360381019080803590602001909291908035906020019092919080359060200190929190505050610828565b604051808381526020018281526020019250505060405180910390f35b3480156103d757600080fd5b506104006004803603810190808035906020019092919080359060200190929190505050610934565b6040518082600360200280838360005b8381101561042b578082015181840152602081019050610410565b5050505090500191505060405180910390f35b34801561044a57600080fd5b50610453610a39565b604051808381526020018281526020019250505060405180910390f35b34801561047c57600080fd5b506104a56004803603810190808035906020019092919080359060200190929190505050610a4d565b604051808215151515815260200191505060405180910390f35b3480156104cb57600080fd5b506104fe600480360381019080803590602001909291908035906020019092919080359060200190929190505050610a77565b60405180848152602001838152602001828152602001935050505060405180910390f35b34801561052e57600080fd5b5061057f600480360381019080803590602001909291908035906020019092919080359060200190929190803590602001909291908035906020019092919080359060200190929190505050610f28565b60405180848152602001838152602001828152602001935050505060405180910390f35b60008060006105b485856001610a77565b8093508196508297505050506105cb858583610790565b92509250509250929050565b6060600080606080606061062c7f79be667ef9dcbbac55a06295ce870b07029bfcdb2dce28d959f2815b16f817987f483ada7726a3c4655da4fbfc0e1108a8fd17b448a68554199c47d08ffb10d4b889610828565b809550819650505061063d856110b8565b9250610648846110b8565b915061065483836110fc565b90508095505050505050919050565b60008060008060016000829250819150809050925092509250909192565b60606106a23373ffffffffffffffffffffffffffffffffffffffff166105d7565b905090565b600082826040516020018083805190602001908083835b6020831015156106e357805182526020820191506020810190506020830392506106be565b6001836020036101000a0380198251168184511680821785525050505050509050018260001916600019168152602001925050506040516020818303038152906040526040518082805190602001908083835b60208310151561075b5780518252602082019150602081019050602083039250610736565b6001836020036101000a0380198251168184511680821785525050505050509050019150506040518091039020905092915050565b60008060006107bf847ffffffffffffffffffffffffffffffffffffffffffffffffffffffffefffffc2f6111a9565b90507ffffffffffffffffffffffffffffffffffffffffffffffffffffffffefffffc2f8015156107eb57fe5b81870992507ffffffffffffffffffffffffffffffffffffffffffffffffffffffffefffffc2f80151561081a57fe5b818609915050935093915050565b600080600080600080600087141561084b57610842610a39565b95509550610928565b600187141561085f57888895509550610928565b600287141561087b5761087289896105a3565b95509550610928565b8893508792506001915060019050889550879450600060028881151561089d57fe5b0614156108ac57600094508495505b6001879060020a900496505b6000871115610918576108cc848484610a77565b80945081955082965050505060016002888115156108e657fe5b061415610908576108fb848484898986610f28565b8093508197508298505050505b6001879060020a900496506108b8565b610923868683610790565b955095505b50505050935093915050565b61093c61160f565b7ffffffffffffffffffffffffffffffffffffffffffffffffffffffffefffffc2f80151561096657fe5b600160000881600260038110151561097a57fe5b6020020181815250507ffffffffffffffffffffffffffffffffffffffffffffffffffffffffefffffc2f8015156109ad57fe5b8160026003811015156109bc57fe5b602002015184098160006003811015156109d257fe5b6020020181815250507ffffffffffffffffffffffffffffffffffffffffffffffffffffffffefffffc2f801515610a0557fe5b816002600381101515610a1457fe5b60200201518309816001600381101515610a2a57fe5b60200201818152505092915050565b600080600080819150809050915091509091565b60008083148015610a5e5750600082145b15610a6c5760019050610a71565b600090505b92915050565b6000806000806000806000610a8c8a8a610a4d565b15610aa457610a99610663565b965096509650610f1b565b7ffffffffffffffffffffffffffffffffffffffffffffffffffffffffefffffc2f801515610ace57fe5b888a0992507ffffffffffffffffffffffffffffffffffffffffffffffffffffffffefffffc2f801515610afd57fe5b6002840992507ffffffffffffffffffffffffffffffffffffffffffffffffffffffffefffffc2f801515610b2d57fe5b8a840991507ffffffffffffffffffffffffffffffffffffffffffffffffffffffffefffffc2f801515610b5c57fe5b89830991507ffffffffffffffffffffffffffffffffffffffffffffffffffffffffefffffc2f801515610b8b57fe5b6002830991507ffffffffffffffffffffffffffffffffffffffffffffffffffffffffefffffc2f801515610bbb57fe5b8a8b0999507ffffffffffffffffffffffffffffffffffffffffffffffffffffffffefffffc2f801515610bea57fe5b60038b0993507ffffffffffffffffffffffffffffffffffffffffffffffffffffffffefffffc2f801515610c1a57fe5b88890997507ffffffffffffffffffffffffffffffffffffffffffffffffffffffffefffffc2f801515610c4957fe5b6000890997507ffffffffffffffffffffffffffffffffffffffffffffffffffffffffefffffc2f801515610c7957fe5b88850893507ffffffffffffffffffffffffffffffffffffffffffffffffffffffffefffffc2f801515610ca857fe5b84850990507ffffffffffffffffffffffffffffffffffffffffffffffffffffffffefffffc2f801515610cd757fe5b8260020999507ffffffffffffffffffffffffffffffffffffffffffffffffffffffffefffffc2f801515610d0757fe5b8a7ffffffffffffffffffffffffffffffffffffffffffffffffffffffffefffffc2f03820890507ffffffffffffffffffffffffffffffffffffffffffffffffffffffffefffffc2f801515610d5857fe5b817ffffffffffffffffffffffffffffffffffffffffffffffffffffffffefffffc2f03830899507ffffffffffffffffffffffffffffffffffffffffffffffffffffffffefffffc2f801515610da957fe5b8a850999507ffffffffffffffffffffffffffffffffffffffffffffffffffffffffefffffc2f801515610dd857fe5b838a0998507ffffffffffffffffffffffffffffffffffffffffffffffffffffffffefffffc2f801515610e0757fe5b898a0998507ffffffffffffffffffffffffffffffffffffffffffffffffffffffffefffffc2f801515610e3657fe5b8960020998507ffffffffffffffffffffffffffffffffffffffffffffffffffffffffefffffc2f801515610e6657fe5b897ffffffffffffffffffffffffffffffffffffffffffffffffffffffffefffffc2f038b0895507ffffffffffffffffffffffffffffffffffffffffffffffffffffffffefffffc2f801515610eb757fe5b81840996507ffffffffffffffffffffffffffffffffffffffffffffffffffffffffefffffc2f801515610ee657fe5b83840994507ffffffffffffffffffffffffffffffffffffffffffffffffffffffffefffffc2f801515610f1557fe5b83860994505b5050505093509350939050565b6000806000806000806000610f3d8d8d610a4d565b15610f50578989899650965096506110a8565b610f5a8a8a610a4d565b15610f6d578c8c8c9650965096506110a8565b7ffffffffffffffffffffffffffffffffffffffffffffffffffffffffefffffc2f801515610f9757fe5b888d0993507ffffffffffffffffffffffffffffffffffffffffffffffffffffffffefffffc2f801515610fc657fe5b8b8a0992507ffffffffffffffffffffffffffffffffffffffffffffffffffffffffefffffc2f801515610ff557fe5b888e0991507ffffffffffffffffffffffffffffffffffffffffffffffffffffffffefffffc2f80151561102457fe5b8b8b09905080821415611062578284141561104f576110448d8d8d610a77565b9650965096506110a8565b611057610663565b9650965096506110a8565b61109b7ffffffffffffffffffffffffffffffffffffffffffffffffffffffffefffffc2f80151561108f57fe5b898d0983838688611259565b8097508198508299505050505b5050505096509650969350505050565b606060206040519080825280601f01601f1916602001820160405280156110ee5781602001602082028038833980820191505090505b509050816020820152919050565b6060600080600080865193508551840192506020601f88510181151561111e57fe5b0491506020601f87510181151561113157fe5b04905060405183815260005b8381101561116457806001016020028901518160010160200283015280600101905061113d565b5060005b828110156111915780600101602002880151868260010160200201830152806001019050611168565b50836020018101604052809550505050505092915050565b60008060008060008060008814806111c057508688145b806111cb5750600087145b156111d9576000955061124e565b868811156111f05786888115156111ec57fe5b0697505b600193508692508791505b60008214151561123457818381151561121057fe5b049050838482028603838484028603809550819650829750839850505050506111fb565b600085121561124a57846000038703955061124e565b8495505b505050505092915050565b6000806000806000806000807ffffffffffffffffffffffffffffffffffffffffffffffffffffffffefffffc2f80151561128f57fe5b8a7ffffffffffffffffffffffffffffffffffffffffffffffffffffffffefffffc2f038a0890507ffffffffffffffffffffffffffffffffffffffffffffffffffffffffefffffc2f8015156112e057fe5b8b7ffffffffffffffffffffffffffffffffffffffffffffffffffffffffefffffc2f038d0894507ffffffffffffffffffffffffffffffffffffffffffffffffffffffffefffffc2f80151561133157fe5b85860993507ffffffffffffffffffffffffffffffffffffffffffffffffffffffffefffffc2f80151561136057fe5b81820991507ffffffffffffffffffffffffffffffffffffffffffffffffffffffffefffffc2f80151561138f57fe5b8d830991507ffffffffffffffffffffffffffffffffffffffffffffffffffffffffefffffc2f8015156113be57fe5b8c8c089a507ffffffffffffffffffffffffffffffffffffffffffffffffffffffffefffffc2f8015156113ed57fe5b848c099a507ffffffffffffffffffffffffffffffffffffffffffffffffffffffffefffffc2f80151561141c57fe5b8b7ffffffffffffffffffffffffffffffffffffffffffffffffffffffffefffffc2f03830891507ffffffffffffffffffffffffffffffffffffffffffffffffffffffffefffffc2f80151561146d57fe5b82860997507ffffffffffffffffffffffffffffffffffffffffffffffffffffffffefffffc2f80151561149c57fe5b85850992507ffffffffffffffffffffffffffffffffffffffffffffffffffffffffefffffc2f8015156114cb57fe5b848d099b507ffffffffffffffffffffffffffffffffffffffffffffffffffffffffefffffc2f8015156114fa57fe5b827ffffffffffffffffffffffffffffffffffffffffffffffffffffffffefffffc2f038d089b507ffffffffffffffffffffffffffffffffffffffffffffffffffffffffefffffc2f80151561154b57fe5b8c820990507ffffffffffffffffffffffffffffffffffffffffffffffffffffffffefffffc2f80151561157a57fe5b838a0998507ffffffffffffffffffffffffffffffffffffffffffffffffffffffffefffffc2f8015156115a957fe5b897ffffffffffffffffffffffffffffffffffffffffffffffffffffffffefffffc2f03820896507ffffffffffffffffffffffffffffffffffffffffffffffffffffffffefffffc2f8015156115fa57fe5b8d840995505050505050955095509592505050565b6060604051908101604052806003906020820280388339808201915050905050905600a165627a7a7230582056e03748e54d6c812d908222e3b202e2513c6a90ab4e490b974fbe259bb04d890029",
  "source": "pragma solidity ^0.4.24;\n\nimport \"./EllipticCurve.sol\";\n\ncontract Utils is EllipticCurve {\n  function getAddressKey() view public returns (bytes key) {\n    return multipleGeneratorByScalar(uint(msg.sender));\n  }\n\n  function getDataKey(bytes convertedAddress, bytes32 dataHash) pure public returns (bytes32 key) {\n    return keccak256(abi.encodePacked(convertedAddress, dataHash));\n  }\n}\n",
  "sourcePath": "/home/kim/workspace/ProjectB/TruffLeBIdentity/contracts/Utils.sol",
  "compiler": {
    "name": "solc",
    "version": "0.4.25+commit.59dbf8f1.Emscripten.clang"
  },
  "schemaVersion": "2.0.2",
  "updatedAt": "2020-01-29T08:28:56.762Z"
}