{
  "contractName": "Gateway",
  "abi": [
    {
      "constant": false,
      "inputs": [
        {
          "name": "_token",
          "type": "address"
        }
      ],
      "name": "toggleToken",
      "outputs": [],
      "payable": false,
      "stateMutability": "nonpayable",
      "type": "function"
    },
    {
      "constant": true,
      "inputs": [],
      "name": "numValidators",
      "outputs": [
        {
          "name": "",
          "type": "uint256"
        }
      ],
      "payable": false,
      "stateMutability": "view",
      "type": "function"
    },
    {
      "constant": false,
      "inputs": [],
      "name": "renounceOwnership",
      "outputs": [],
      "payable": false,
      "stateMutability": "nonpayable",
      "type": "function"
    },
    {
      "constant": true,
      "inputs": [
        {
          "name": "_address",
          "type": "address"
        }
      ],
      "name": "checkValidator",
      "outputs": [
        {
          "name": "",
          "type": "bool"
        }
      ],
      "payable": false,
      "stateMutability": "view",
      "type": "function"
    },
    {
      "constant": true,
      "inputs": [
        {
          "name": "",
          "type": "address"
        }
      ],
      "name": "nonces",
      "outputs": [
        {
          "name": "",
          "type": "uint256"
        }
      ],
      "payable": false,
      "stateMutability": "view",
      "type": "function"
    },
    {
      "constant": true,
      "inputs": [],
      "name": "owner",
      "outputs": [
        {
          "name": "",
          "type": "address"
        }
      ],
      "payable": false,
      "stateMutability": "view",
      "type": "function"
    },
    {
      "constant": false,
      "inputs": [
        {
          "name": "validator",
          "type": "address"
        },
        {
          "name": "v",
          "type": "uint8[]"
        },
        {
          "name": "r",
          "type": "bytes32[]"
        },
        {
          "name": "s",
          "type": "bytes32[]"
        }
      ],
      "name": "addValidator",
      "outputs": [],
      "payable": false,
      "stateMutability": "nonpayable",
      "type": "function"
    },
    {
      "constant": true,
      "inputs": [],
      "name": "nonce",
      "outputs": [
        {
          "name": "",
          "type": "uint256"
        }
      ],
      "payable": false,
      "stateMutability": "view",
      "type": "function"
    },
    {
      "constant": false,
      "inputs": [
        {
          "name": "validator",
          "type": "address"
        },
        {
          "name": "v",
          "type": "uint8[]"
        },
        {
          "name": "r",
          "type": "bytes32[]"
        },
        {
          "name": "s",
          "type": "bytes32[]"
        }
      ],
      "name": "removeValidator",
      "outputs": [],
      "payable": false,
      "stateMutability": "nonpayable",
      "type": "function"
    },
    {
      "constant": true,
      "inputs": [
        {
          "name": "",
          "type": "address"
        }
      ],
      "name": "allowedTokens",
      "outputs": [
        {
          "name": "",
          "type": "bool"
        }
      ],
      "payable": false,
      "stateMutability": "view",
      "type": "function"
    },
    {
      "constant": false,
      "inputs": [
        {
          "name": "_newOwner",
          "type": "address"
        }
      ],
      "name": "transferOwnership",
      "outputs": [],
      "payable": false,
      "stateMutability": "nonpayable",
      "type": "function"
    },
    {
      "inputs": [
        {
          "name": "_validators",
          "type": "address[]"
        },
        {
          "name": "_threshold_num",
          "type": "uint8"
        },
        {
          "name": "_threshold_denom",
          "type": "uint8"
        }
      ],
      "payable": false,
      "stateMutability": "nonpayable",
      "type": "constructor"
    },
    {
      "payable": true,
      "stateMutability": "payable",
      "type": "fallback"
    },
    {
      "anonymous": false,
      "inputs": [
        {
          "indexed": false,
          "name": "from",
          "type": "address"
        },
        {
          "indexed": false,
          "name": "amount",
          "type": "uint256"
        }
      ],
      "name": "ETHReceived",
      "type": "event"
    },
    {
      "anonymous": false,
      "inputs": [
        {
          "indexed": true,
          "name": "owner",
          "type": "address"
        },
        {
          "indexed": false,
          "name": "kind",
          "type": "uint8"
        },
        {
          "indexed": false,
          "name": "contractAddress",
          "type": "address"
        },
        {
          "indexed": false,
          "name": "value",
          "type": "uint256"
        }
      ],
      "name": "TokenWithdrawn",
      "type": "event"
    },
    {
      "anonymous": false,
      "inputs": [
        {
          "indexed": false,
          "name": "validator",
          "type": "address"
        }
      ],
      "name": "AddedValidator",
      "type": "event"
    },
    {
      "anonymous": false,
      "inputs": [
        {
          "indexed": false,
          "name": "validator",
          "type": "address"
        }
      ],
      "name": "RemovedValidator",
      "type": "event"
    },
    {
      "anonymous": false,
      "inputs": [
        {
          "indexed": true,
          "name": "previousOwner",
          "type": "address"
        }
      ],
      "name": "OwnershipRenounced",
      "type": "event"
    },
    {
      "anonymous": false,
      "inputs": [
        {
          "indexed": true,
          "name": "previousOwner",
          "type": "address"
        },
        {
          "indexed": true,
          "name": "newOwner",
          "type": "address"
        }
      ],
      "name": "OwnershipTransferred",
      "type": "event"
    },
    {
      "constant": false,
      "inputs": [
        {
          "name": "amount",
          "type": "uint256"
        },
        {
          "name": "sig",
          "type": "bytes"
        }
      ],
      "name": "withdrawETH",
      "outputs": [],
      "payable": false,
      "stateMutability": "nonpayable",
      "type": "function"
    },
    {
      "constant": true,
      "inputs": [
        {
          "name": "owner",
          "type": "address"
        }
      ],
      "name": "getETH",
      "outputs": [
        {
          "name": "",
          "type": "uint256"
        }
      ],
      "payable": false,
      "stateMutability": "view",
      "type": "function"
    }
  ],
  "bytecode": "0x608060405234801561001057600080fd5b50604051611915380380611915833981018060405281019080805182019291906020018051906020019092919080519060200190929190505050828282600080336000806101000a81548173ffffffffffffffffffffffffffffffffffffffff021916908373ffffffffffffffffffffffffffffffffffffffff160217905550845191506000821115156100a357600080fd5b83600460006101000a81548160ff021916908360ff16021790555082600460016101000a81548160ff021916908360ff160217905550600090505b8181101561022f57600073ffffffffffffffffffffffffffffffffffffffff16858281518110151561010c57fe5b9060200190602002015173ffffffffffffffffffffffffffffffffffffffff161415151561013957600080fd5b600160036000878481518110151561014d57fe5b9060200190602002015173ffffffffffffffffffffffffffffffffffffffff1673ffffffffffffffffffffffffffffffffffffffff16815260200190815260200160002060006101000a81548160ff0219169083151502179055507f8e15bf46bd11add443414ada75aa9592a4af68f3f2ec02ae3d49572f9843c2a885828151811015156101d757fe5b90602001906020020151604051808273ffffffffffffffffffffffffffffffffffffffff1673ffffffffffffffffffffffffffffffffffffffff16815260200191505060405180910390a180806001019150506100de565b845160058190555050505050505050506116c78061024e6000396000f3006080604052600436106100c5576000357c0100000000000000000000000000000000000000000000000000000000900463ffffffff16806315c75f891461013a5780633ef329861461017d5780635d593f8d146101f0578063715018a61461021b578063797327ae146102325780637ecebe001461028d5780638da5cb5b146102e457806390b616c81461033b578063a928584b146103c6578063affed0e01461041d578063c7e7f6f614610448578063e744092e146104d3578063f2fde38b1461052e575b6100cd610571565b7fbfe611b001dfcd411432f7bf0d79b82b4b2ee81511edac123a3403c357fb972a3334604051808373ffffffffffffffffffffffffffffffffffffffff1673ffffffffffffffffffffffffffffffffffffffff1681526020018281526020019250505060405180910390a1005b34801561014657600080fd5b5061017b600480360381019080803573ffffffffffffffffffffffffffffffffffffffff169060200190929190505050610608565b005b34801561018957600080fd5b506101ee60048036038101908080359060200190929190803590602001908201803590602001908080601f01602080910402602001604051908101604052809392919081815260200183838082843782019150505050505091929192905050506106c3565b005b3480156101fc57600080fd5b5061020561083c565b6040518082815260200191505060405180910390f35b34801561022757600080fd5b50610230610842565b005b34801561023e57600080fd5b50610273600480360381019080803573ffffffffffffffffffffffffffffffffffffffff169060200190929190505050610944565b604051808215151515815260200191505060405180910390f35b34801561029957600080fd5b506102ce600480360381019080803573ffffffffffffffffffffffffffffffffffffffff1690602001909291905050506109f9565b6040518082815260200191505060405180910390f35b3480156102f057600080fd5b506102f9610a11565b604051808273ffffffffffffffffffffffffffffffffffffffff1673ffffffffffffffffffffffffffffffffffffffff16815260200191505060405180910390f35b34801561034757600080fd5b506103c4600480360381019080803573ffffffffffffffffffffffffffffffffffffffff169060200190929190803590602001908201803590602001919091929391929390803590602001908201803590602001919091929391929390803590602001908201803590602001919091929391929390505050610a36565b005b3480156103d257600080fd5b50610407600480360381019080803573ffffffffffffffffffffffffffffffffffffffff169060200190929190505050610d6d565b6040518082815260200191505060405180910390f35b34801561042957600080fd5b50610432610db6565b6040518082815260200191505060405180910390f35b34801561045457600080fd5b506104d1600480360381019080803573ffffffffffffffffffffffffffffffffffffffff169060200190929190803590602001908201803590602001919091929391929390803590602001908201803590602001919091929391929390803590602001908201803590602001919091929391929390505050610dbc565b005b3480156104df57600080fd5b50610514600480360381019080803573ffffffffffffffffffffffffffffffffffffffff1690602001909291905050506110fb565b604051808215151515815260200191505060405180910390f35b34801561053a57600080fd5b5061056f600480360381019080803573ffffffffffffffffffffffffffffffffffffffff16906020019092919050505061111b565b005b6105c334600760003373ffffffffffffffffffffffffffffffffffffffff1673ffffffffffffffffffffffffffffffffffffffff1681526020019081526020016000205461118290919063ffffffff16565b600760003373ffffffffffffffffffffffffffffffffffffffff1673ffffffffffffffffffffffffffffffffffffffff16815260200190815260200160002081905550565b61061133610944565b151561061c57600080fd5b600160008273ffffffffffffffffffffffffffffffffffffffff1673ffffffffffffffffffffffffffffffffffffffff16815260200190815260200160002060009054906101000a900460ff1615600160008373ffffffffffffffffffffffffffffffffffffffff1673ffffffffffffffffffffffffffffffffffffffff16815260200190815260200160002060006101000a81548160ff02191690831515021790555050565b61071582600760003373ffffffffffffffffffffffffffffffffffffffff1673ffffffffffffffffffffffffffffffffffffffff1681526020019081526020016000205461119e90919063ffffffff16565b600760003373ffffffffffffffffffffffffffffffffffffffff1673ffffffffffffffffffffffffffffffffffffffff168152602001908152602001600020819055503373ffffffffffffffffffffffffffffffffffffffff166108fc839081150290604051600060405180830381858888f1935050505015801561079e573d6000803e3d6000fd5b503373ffffffffffffffffffffffffffffffffffffffff167f591f2d33d85291e32c4067b5a497caf3ddb5b1830eba9909e66006ec3a0051b460008085604051808460008111156107eb57fe5b60ff1681526020018373ffffffffffffffffffffffffffffffffffffffff1673ffffffffffffffffffffffffffffffffffffffff168152602001828152602001935050505060405180910390a25050565b60055481565b6000809054906101000a900473ffffffffffffffffffffffffffffffffffffffff1673ffffffffffffffffffffffffffffffffffffffff163373ffffffffffffffffffffffffffffffffffffffff1614151561089d57600080fd5b6000809054906101000a900473ffffffffffffffffffffffffffffffffffffffff1673ffffffffffffffffffffffffffffffffffffffff167ff8df31144d9c2f0f6b59d69b8b98abd5459d07f2742c4df920b25aae33c6482060405160405180910390a260008060006101000a81548173ffffffffffffffffffffffffffffffffffffffff021916908373ffffffffffffffffffffffffffffffffffffffff160217905550565b60008060009054906101000a900473ffffffffffffffffffffffffffffffffffffffff1673ffffffffffffffffffffffffffffffffffffffff168273ffffffffffffffffffffffffffffffffffffffff1614156109a457600190506109f4565b600360008373ffffffffffffffffffffffffffffffffffffffff1673ffffffffffffffffffffffffffffffffffffffff16815260200190815260200160002060009054906101000a900460ff1690505b919050565b60026020528060005260406000206000915090505481565b6000809054906101000a900473ffffffffffffffffffffffffffffffffffffffff1681565b6000600360008973ffffffffffffffffffffffffffffffffffffffff1673ffffffffffffffffffffffffffffffffffffffff16815260200190815260200160002060009054906101000a900460ff16151515610afa576040517f08c379a00000000000000000000000000000000000000000000000000000000081526004018080602001828103825260138152602001807f416c726561647920612076616c696461746f720000000000000000000000000081525060200191505060405180910390fd5b8760065460405160200180807f61646400000000000000000000000000000000000000000000000000000000008152506003018373ffffffffffffffffffffffffffffffffffffffff1673ffffffffffffffffffffffffffffffffffffffff166c01000000000000000000000000028152601401828152602001925050506040516020818303038152906040526040518082805190602001908083835b602083101515610bbc5780518252602082019150602081019050602083039250610b97565b6001836020036101000a03801982511681845116808217855250505050505090500191505060405180910390209050610c84818888808060200260200160405190810160405280939291908181526020018383602002808284378201915050505050508787808060200260200160405190810160405280939291908181526020018383602002808284378201915050505050508686808060200260200160405190810160405280939291908181526020018383602002808284378201915050505050506111b7565b6001600360008a73ffffffffffffffffffffffffffffffffffffffff1673ffffffffffffffffffffffffffffffffffffffff16815260200190815260200160002060006101000a81548160ff0219169083151502179055506005600081548092919060010191905055506006600081548092919060010191905055507f8e15bf46bd11add443414ada75aa9592a4af68f3f2ec02ae3d49572f9843c2a888604051808273ffffffffffffffffffffffffffffffffffffffff1673ffffffffffffffffffffffffffffffffffffffff16815260200191505060405180910390a15050505050505050565b6000600760008373ffffffffffffffffffffffffffffffffffffffff1673ffffffffffffffffffffffffffffffffffffffff168152602001908152602001600020549050919050565b60065481565b6000600360008973ffffffffffffffffffffffffffffffffffffffff1673ffffffffffffffffffffffffffffffffffffffff16815260200190815260200160002060009054906101000a900460ff161515610e7f576040517f08c379a000000000000000000000000000000000000000000000000000000000815260040180806020018281038252600f8152602001807f4e6f7420612076616c696461746f72000000000000000000000000000000000081525060200191505060405180910390fd5b6001600554111515610e9057600080fd5b8760065460405160200180807f72656d6f766500000000000000000000000000000000000000000000000000008152506006018373ffffffffffffffffffffffffffffffffffffffff1673ffffffffffffffffffffffffffffffffffffffff166c01000000000000000000000000028152601401828152602001925050506040516020818303038152906040526040518082805190602001908083835b602083101515610f525780518252602082019150602081019050602083039250610f2d565b6001836020036101000a0380198251168184511680821785525050505050509050019150506040518091039020905061101a818888808060200260200160405190810160405280939291908181526020018383602002808284378201915050505050508787808060200260200160405190810160405280939291908181526020018383602002808284378201915050505050508686808060200260200160405190810160405280939291908181526020018383602002808284378201915050505050506111b7565b600360008973ffffffffffffffffffffffffffffffffffffffff1673ffffffffffffffffffffffffffffffffffffffff16815260200190815260200160002060006101000a81549060ff0219169055600560008154809291906001900391905055506006600081548092919060010191905055507fb625c55cf7e37b54fcd18bc4edafdf3f4f9acd59a5ec824c77c795dcb2d6507088604051808273ffffffffffffffffffffffffffffffffffffffff1673ffffffffffffffffffffffffffffffffffffffff16815260200191505060405180910390a15050505050505050565b60016020528060005260406000206000915054906101000a900460ff1681565b6000809054906101000a900473ffffffffffffffffffffffffffffffffffffffff1673ffffffffffffffffffffffffffffffffffffffff163373ffffffffffffffffffffffffffffffffffffffff1614151561117657600080fd5b61117f816115a1565b50565b6000818301905082811015151561119557fe5b80905092915050565b60008282111515156111ac57fe5b818303905092915050565b60008060008060008088511180156111d0575086518851145b80156111dd575085518751145b1515611251576040517f08c379a000000000000000000000000000000000000000000000000000000000815260040180806020018281038252601a8152602001807f496e636f7272656374206e756d626572206f6620706172616d7300000000000081525060200191505060405180910390fd5b600460019054906101000a900460ff1660ff16600554600460009054906101000a900460ff1660ff160281151561128457fe5b048851101515156112fd576040517f08c379a00000000000000000000000000000000000000000000000000000000081526004018080602001828103825260108152602001807f4e6f7420656e6f75676820766f7465730000000000000000000000000000000081525060200191505060405180910390fd5b8860405160200180807f19457468657265756d205369676e6564204d6573736167653a0a333200000000815250601c0182600019166000191681526020019150506040516020818303038152906040526040518082805190602001908083835b602083101515611382578051825260208201915060208101905060208303925061135d565b6001836020036101000a038019825116818451168082178552505050505050905001915050604051809103902094508751935060009250600091505b838210156115965760018589848151811015156113d757fe5b9060200190602002015189858151811015156113ef57fe5b90602001906020020151898681518110151561140757fe5b90602001906020020151604051600081526020016040526040518085600019166000191681526020018460ff1660ff1681526020018360001916600019168152602001826000191660001916815260200194505050505060206040516020810390808403906000865af1158015611482573d6000803e3d6000fd5b5050506020604051035190508273ffffffffffffffffffffffffffffffffffffffff168173ffffffffffffffffffffffffffffffffffffffff161180156115125750600360008273ffffffffffffffffffffffffffffffffffffffff1673ffffffffffffffffffffffffffffffffffffffff16815260200190815260200160002060009054906101000a900460ff165b1515611586576040517f08c379a00000000000000000000000000000000000000000000000000000000081526004018080602001828103825260198152602001807f4e6f74207369676e656420627920612076616c696461746f720000000000000081525060200191505060405180910390fd5b80925081806001019250506113be565b505050505050505050565b600073ffffffffffffffffffffffffffffffffffffffff168173ffffffffffffffffffffffffffffffffffffffff16141515156115dd57600080fd5b8073ffffffffffffffffffffffffffffffffffffffff166000809054906101000a900473ffffffffffffffffffffffffffffffffffffffff1673ffffffffffffffffffffffffffffffffffffffff167f8be0079c531659141344cd1fd0a4f28419497f9722a3daafe3b4186f6b6457e060405160405180910390a3806000806101000a81548173ffffffffffffffffffffffffffffffffffffffff021916908373ffffffffffffffffffffffffffffffffffffffff160217905550505600a165627a7a7230582060823f2dae5681d08732424aaf58fbdfa552acd77f50cabb2c410fcbad1383470029",
  "source": "pragma solidity ^0.4.24;\n\nimport \"openzeppelin-solidity/contracts/math/SafeMath.sol\";\nimport \"./ValidatorManagerContract.sol\";\n\ncontract Gateway is ValidatorManagerContract {\n\n  using SafeMath for uint256;\n\n  mapping (address => uint256) _Ether;\n  event ETHReceived(address from, uint256 amount);\n\n  enum TokenKind {\n    ETH\n  }\n\n  /**\n   * Event to log the withdrawal of a token from the Gateway.\n   * @param owner Address of the entity that made the withdrawal.\n   * @param kind The type of token withdrawn (ETH).\n   * @param contractAddress Address of token contract the token belong to.\n   * @param value for ETH this is the amount.\n   */\n  event TokenWithdrawn(address indexed owner, TokenKind kind, address contractAddress, uint256 value);\n\n  constructor (address[] _validators, uint8 _threshold_num, uint8 _threshold_denom)\n    public ValidatorManagerContract(_validators, _threshold_num, _threshold_denom) {\n  }\n\n  // Deposit functions\n  function depositETH() private {\n    _Ether[msg.sender] = _Ether[msg.sender].add(msg.value);\n  }\n\n  // Withdrawal functions\n  function withdrawETH(uint256 amount, bytes sig)\n    //TODO: 체크필요!!!\n    //external\n    //isVerifiedByValidator(amount, address(this), sig)\n  {\n    _Ether[msg.sender] = _Ether[msg.sender].sub(amount);\n    msg.sender.transfer(amount); // ensure it's not reentrant\n    emit TokenWithdrawn(msg.sender, TokenKind.ETH, address(0), amount);\n  }\n\n  function () external payable {\n    depositETH();\n    emit ETHReceived(msg.sender, msg.value);\n  }\n\n  // Returns all the ETH you own\n  function getETH(address owner) external view returns (uint256) {\n    return _Ether[owner];\n  }\n}\n",
  "sourcePath": "/home/kim/workspace/ProjectB/TruffLeGateWay/contracts/Gateway.sol",
  "compiler": {
    "name": "solc",
    "version": "0.4.25+commit.59dbf8f1.Emscripten.clang"
  },
  "schemaVersion": "2.0.2",
  "updatedAt": "2020-01-29T05:47:08.843Z"
}