{
  "contractName": "BToken",
  "abi": [
    {
      "constant": false,
      "inputs": [
        {
          "name": "cTokenId",
          "type": "uint256"
        },
        {
          "name": "cid",
          "type": "uint256"
        },
        {
          "name": "hash",
          "type": "bytes32"
        },
        {
          "name": "fee",
          "type": "uint256"
        }
      ],
      "name": "_ModifyCToken",
      "outputs": [],
      "payable": false,
      "stateMutability": "nonpayable",
      "type": "function"
    },
    {
      "constant": true,
      "inputs": [
        {
          "name": "",
          "type": "address"
        },
        {
          "name": "",
          "type": "uint256"
        }
      ],
      "name": "Provider2CID",
      "outputs": [
        {
          "name": "",
          "type": "uint256"
        }
      ],
      "payable": false,
      "stateMutability": "view",
      "type": "function"
    },
    {
      "constant": true,
      "inputs": [
        {
          "name": "",
          "type": "uint256"
        }
      ],
      "name": "_CTs",
      "outputs": [
        {
          "name": "_Cid",
          "type": "uint256"
        },
        {
          "name": "_Hash",
          "type": "bytes32"
        },
        {
          "name": "_Fee",
          "type": "uint256"
        },
        {
          "name": "_Supply",
          "type": "uint256"
        },
        {
          "name": "_DisabLed",
          "type": "bool"
        }
      ],
      "payable": false,
      "stateMutability": "view",
      "type": "function"
    },
    {
      "constant": false,
      "inputs": [
        {
          "name": "cid",
          "type": "uint256"
        },
        {
          "name": "titLe",
          "type": "string"
        }
      ],
      "name": "_ModifyData",
      "outputs": [],
      "payable": false,
      "stateMutability": "nonpayable",
      "type": "function"
    },
    {
      "constant": true,
      "inputs": [
        {
          "name": "cid",
          "type": "uint256"
        }
      ],
      "name": "GetDataDetails",
      "outputs": [
        {
          "name": "title",
          "type": "string"
        }
      ],
      "payable": false,
      "stateMutability": "view",
      "type": "function"
    },
    {
      "constant": false,
      "inputs": [],
      "name": "renounceOwnership",
      "outputs": [],
      "payable": false,
      "stateMutability": "nonpayable",
      "type": "function"
    },
    {
      "constant": true,
      "inputs": [
        {
          "name": "",
          "type": "uint256"
        }
      ],
      "name": "_CIDs",
      "outputs": [
        {
          "name": "_TitLe",
          "type": "string"
        }
      ],
      "payable": false,
      "stateMutability": "view",
      "type": "function"
    },
    {
      "constant": true,
      "inputs": [
        {
          "name": "uTokenId",
          "type": "uint256"
        }
      ],
      "name": "existsU",
      "outputs": [
        {
          "name": "",
          "type": "bool"
        }
      ],
      "payable": false,
      "stateMutability": "view",
      "type": "function"
    },
    {
      "constant": false,
      "inputs": [
        {
          "name": "fee",
          "type": "uint256"
        }
      ],
      "name": "SetEnabLeFee",
      "outputs": [],
      "payable": false,
      "stateMutability": "nonpayable",
      "type": "function"
    },
    {
      "constant": false,
      "inputs": [
        {
          "name": "cTokenId",
          "type": "uint256"
        }
      ],
      "name": "EnabLeCToken",
      "outputs": [],
      "payable": true,
      "stateMutability": "payable",
      "type": "function"
    },
    {
      "constant": true,
      "inputs": [],
      "name": "owner",
      "outputs": [
        {
          "name": "",
          "type": "address"
        }
      ],
      "payable": false,
      "stateMutability": "view",
      "type": "function"
    },
    {
      "constant": true,
      "inputs": [
        {
          "name": "cid",
          "type": "uint256"
        }
      ],
      "name": "existsD",
      "outputs": [
        {
          "name": "",
          "type": "bool"
        }
      ],
      "payable": false,
      "stateMutability": "view",
      "type": "function"
    },
    {
      "constant": true,
      "inputs": [],
      "name": "GetOwnedUTokens",
      "outputs": [
        {
          "name": "",
          "type": "uint256[]"
        }
      ],
      "payable": false,
      "stateMutability": "view",
      "type": "function"
    },
    {
      "constant": true,
      "inputs": [
        {
          "name": "",
          "type": "uint256"
        }
      ],
      "name": "CID2Provider",
      "outputs": [
        {
          "name": "",
          "type": "address"
        }
      ],
      "payable": false,
      "stateMutability": "view",
      "type": "function"
    },
    {
      "constant": false,
      "inputs": [
        {
          "name": "cTokenId",
          "type": "uint256"
        }
      ],
      "name": "DisabLeCToken",
      "outputs": [],
      "payable": false,
      "stateMutability": "nonpayable",
      "type": "function"
    },
    {
      "constant": true,
      "inputs": [],
      "name": "GetOwnedDatas",
      "outputs": [
        {
          "name": "",
          "type": "uint256[]"
        }
      ],
      "payable": false,
      "stateMutability": "view",
      "type": "function"
    },
    {
      "constant": true,
      "inputs": [
        {
          "name": "",
          "type": "uint256"
        },
        {
          "name": "",
          "type": "uint256"
        }
      ],
      "name": "CID2CTokenID",
      "outputs": [
        {
          "name": "",
          "type": "uint256"
        }
      ],
      "payable": false,
      "stateMutability": "view",
      "type": "function"
    },
    {
      "constant": true,
      "inputs": [
        {
          "name": "uTokenId",
          "type": "uint256"
        }
      ],
      "name": "GetUTokenDetails",
      "outputs": [
        {
          "name": "user",
          "type": "address"
        },
        {
          "name": "cTokenId",
          "type": "uint256"
        },
        {
          "name": "state",
          "type": "uint8"
        }
      ],
      "payable": false,
      "stateMutability": "view",
      "type": "function"
    },
    {
      "constant": true,
      "inputs": [],
      "name": "GetOwnedCTokens",
      "outputs": [
        {
          "name": "",
          "type": "uint256[]"
        }
      ],
      "payable": false,
      "stateMutability": "view",
      "type": "function"
    },
    {
      "constant": false,
      "inputs": [
        {
          "name": "_newOwner",
          "type": "address"
        }
      ],
      "name": "transferOwnership",
      "outputs": [],
      "payable": false,
      "stateMutability": "nonpayable",
      "type": "function"
    },
    {
      "anonymous": false,
      "inputs": [
        {
          "indexed": false,
          "name": "provider",
          "type": "address"
        },
        {
          "indexed": false,
          "name": "cid",
          "type": "uint256"
        },
        {
          "indexed": false,
          "name": "titLe",
          "type": "string"
        }
      ],
      "name": "NewData",
      "type": "event"
    },
    {
      "anonymous": false,
      "inputs": [
        {
          "indexed": false,
          "name": "cTokenId",
          "type": "uint256"
        },
        {
          "indexed": false,
          "name": "cid",
          "type": "uint256"
        },
        {
          "indexed": false,
          "name": "hash",
          "type": "bytes32"
        },
        {
          "indexed": false,
          "name": "fee",
          "type": "uint256"
        },
        {
          "indexed": false,
          "name": "supply",
          "type": "uint256"
        }
      ],
      "name": "NewCToken",
      "type": "event"
    },
    {
      "anonymous": false,
      "inputs": [
        {
          "indexed": false,
          "name": "owner",
          "type": "address"
        },
        {
          "indexed": false,
          "name": "uTokenId",
          "type": "uint256"
        },
        {
          "indexed": false,
          "name": "cTokenId",
          "type": "uint256"
        },
        {
          "indexed": false,
          "name": "state",
          "type": "uint8"
        }
      ],
      "name": "NewUToken",
      "type": "event"
    },
    {
      "anonymous": false,
      "inputs": [
        {
          "indexed": false,
          "name": "owner",
          "type": "address"
        },
        {
          "indexed": false,
          "name": "distributor",
          "type": "address"
        },
        {
          "indexed": false,
          "name": "cTokenId",
          "type": "uint256"
        },
        {
          "indexed": false,
          "name": "cost",
          "type": "uint256"
        },
        {
          "indexed": false,
          "name": "exclusivity",
          "type": "bool"
        },
        {
          "indexed": false,
          "name": "timeout",
          "type": "uint256"
        }
      ],
      "name": "NewDistCon",
      "type": "event"
    },
    {
      "anonymous": false,
      "inputs": [
        {
          "indexed": false,
          "name": "provider",
          "type": "address"
        },
        {
          "indexed": false,
          "name": "cid",
          "type": "uint256"
        },
        {
          "indexed": false,
          "name": "title",
          "type": "string"
        }
      ],
      "name": "ModifyData",
      "type": "event"
    },
    {
      "anonymous": false,
      "inputs": [
        {
          "indexed": false,
          "name": "cTokenId",
          "type": "uint256"
        },
        {
          "indexed": false,
          "name": "cid",
          "type": "uint256"
        },
        {
          "indexed": false,
          "name": "hash",
          "type": "bytes32"
        },
        {
          "indexed": false,
          "name": "fee",
          "type": "uint256"
        }
      ],
      "name": "ModifyCToken",
      "type": "event"
    },
    {
      "anonymous": false,
      "inputs": [
        {
          "indexed": true,
          "name": "previousOwner",
          "type": "address"
        }
      ],
      "name": "OwnershipRenounced",
      "type": "event"
    },
    {
      "anonymous": false,
      "inputs": [
        {
          "indexed": true,
          "name": "previousOwner",
          "type": "address"
        },
        {
          "indexed": true,
          "name": "newOwner",
          "type": "address"
        }
      ],
      "name": "OwnershipTransferred",
      "type": "event"
    },
    {
      "constant": false,
      "inputs": [
        {
          "name": "contractAddress",
          "type": "address"
        }
      ],
      "name": "setERC721ZInterface",
      "outputs": [],
      "payable": false,
      "stateMutability": "nonpayable",
      "type": "function"
    },
    {
      "constant": true,
      "inputs": [
        {
          "name": "owner",
          "type": "address"
        },
        {
          "name": "cTokenId",
          "type": "uint256"
        }
      ],
      "name": "balanceOf",
      "outputs": [
        {
          "name": "",
          "type": "uint256"
        }
      ],
      "payable": false,
      "stateMutability": "view",
      "type": "function"
    },
    {
      "constant": true,
      "inputs": [
        {
          "name": "_tokenId",
          "type": "uint256"
        }
      ],
      "name": "exists",
      "outputs": [
        {
          "name": "",
          "type": "bool"
        }
      ],
      "payable": false,
      "stateMutability": "view",
      "type": "function"
    },
    {
      "constant": true,
      "inputs": [
        {
          "name": "_tokenId",
          "type": "uint256"
        }
      ],
      "name": "ownerOf",
      "outputs": [
        {
          "name": "_owner",
          "type": "address"
        }
      ],
      "payable": false,
      "stateMutability": "view",
      "type": "function"
    },
    {
      "constant": true,
      "inputs": [],
      "name": "totalSupply",
      "outputs": [
        {
          "name": "",
          "type": "uint256"
        }
      ],
      "payable": false,
      "stateMutability": "view",
      "type": "function"
    },
    {
      "constant": false,
      "inputs": [
        {
          "name": "titLe",
          "type": "string"
        }
      ],
      "name": "registerData",
      "outputs": [
        {
          "name": "cid",
          "type": "uint256"
        }
      ],
      "payable": false,
      "stateMutability": "nonpayable",
      "type": "function"
    },
    {
      "constant": false,
      "inputs": [
        {
          "name": "cTokenId",
          "type": "uint256"
        },
        {
          "name": "suppLy",
          "type": "uint256"
        }
      ],
      "name": "mintX_withTokenID",
      "outputs": [],
      "payable": false,
      "stateMutability": "nonpayable",
      "type": "function"
    },
    {
      "constant": false,
      "inputs": [
        {
          "name": "cid",
          "type": "uint256"
        },
        {
          "name": "hash",
          "type": "bytes32"
        },
        {
          "name": "fee",
          "type": "uint256"
        },
        {
          "name": "supply",
          "type": "uint256"
        }
      ],
      "name": "registerHash",
      "outputs": [],
      "payable": false,
      "stateMutability": "nonpayable",
      "type": "function"
    },
    {
      "constant": false,
      "inputs": [
        {
          "name": "distributor",
          "type": "address"
        }
      ],
      "name": "enrollDistributor",
      "outputs": [],
      "payable": false,
      "stateMutability": "nonpayable",
      "type": "function"
    },
    {
      "constant": false,
      "inputs": [
        {
          "name": "cTokenId",
          "type": "uint256"
        },
        {
          "name": "distributor",
          "type": "address"
        },
        {
          "name": "cost",
          "type": "uint256"
        },
        {
          "name": "exclusivity",
          "type": "bool"
        },
        {
          "name": "timeout",
          "type": "uint256"
        }
      ],
      "name": "distContract",
      "outputs": [],
      "payable": false,
      "stateMutability": "nonpayable",
      "type": "function"
    },
    {
      "constant": true,
      "inputs": [
        {
          "name": "cTokenId",
          "type": "uint256"
        }
      ],
      "name": "getDistContracts",
      "outputs": [
        {
          "name": "count",
          "type": "uint256"
        }
      ],
      "payable": false,
      "stateMutability": "view",
      "type": "function"
    },
    {
      "constant": true,
      "inputs": [
        {
          "name": "cTokenId",
          "type": "uint256"
        },
        {
          "name": "index",
          "type": "uint256"
        }
      ],
      "name": "getDistConDetails",
      "outputs": [
        {
          "name": "distributor",
          "type": "address"
        },
        {
          "name": "cost",
          "type": "uint256"
        },
        {
          "name": "exclusivity",
          "type": "bool"
        },
        {
          "name": "timeout",
          "type": "uint256"
        }
      ],
      "payable": false,
      "stateMutability": "view",
      "type": "function"
    },
    {
      "constant": false,
      "inputs": [
        {
          "name": "cTokenId",
          "type": "uint256"
        }
      ],
      "name": "buyToken",
      "outputs": [
        {
          "name": "uTokenId",
          "type": "uint256"
        }
      ],
      "payable": true,
      "stateMutability": "payable",
      "type": "function"
    }
  ],
  "bytecode": "0x608060405266038d7ea4c68000600c55336000806101000a81548173ffffffffffffffffffffffffffffffffffffffff021916908373ffffffffffffffffffffffffffffffffffffffff160217905550613c0d8061005e6000396000f3006080604052600436106101a0576000357c0100000000000000000000000000000000000000000000000000000000900463ffffffff168062fdd58e146101a557806309583e6b14610206578063118285031461024957806318160ddd1461028c5780631d26bc6f146102b757806326d9742f146103065780632d296bf11461036757806338881e531461039b5780633b966111146103d257806342cfaf5f1461043b57806349f2340a146104a85780634f558e791461051b5780636352211e146105605780636ed78e42146105cd578063715018a61461067357806373b18dff1461068a578063781be31b14610730578063875febc81461077557806389b62bc7146107a25780638da5cb5b146107c25780639739c93c14610819578063aec892c81461085a578063af40772a1461089f578063bb088fc11461090b578063be74020e14610978578063c2ae0c3e146109a5578063c8f11ee114610a11578063d99dbb4e14610a8e578063e3461cdc14610ad9578063ee01c6a714610b5a578063f147c0ad14610ba9578063f1c04d6a14610c39578063f2fde38b14610ca5575b600080fd5b3480156101b157600080fd5b506101f0600480360381019080803573ffffffffffffffffffffffffffffffffffffffff16906020019092919080359060200190929190505050610ce8565b6040518082815260200191505060405180910390f35b34801561021257600080fd5b50610247600480360381019080803573ffffffffffffffffffffffffffffffffffffffff169060200190929190505050610df1565b005b34801561025557600080fd5b5061028a600480360381019080803573ffffffffffffffffffffffffffffffffffffffff169060200190929190505050610f56565b005b34801561029857600080fd5b506102a1610f9a565b6040518082815260200191505060405180910390f35b3480156102c357600080fd5b506103046004803603810190808035906020019092919080359060200190929190803560001916906020019092919080359060200190929190505050611062565b005b34801561031257600080fd5b50610351600480360381019080803573ffffffffffffffffffffffffffffffffffffffff1690602001909291908035906020019092919050505061122a565b6040518082815260200191505060405180910390f35b6103856004803603810190808035906020019092919050505061125a565b6040518082815260200191505060405180910390f35b3480156103a757600080fd5b506103d0600480360381019080803590602001909291908035906020019092919050505061161f565b005b3480156103de57600080fd5b506103fd60048036038101908080359060200190929190505050611800565b604051808681526020018560001916600019168152602001848152602001838152602001821515151581526020019550505050505060405180910390f35b34801561044757600080fd5b506104a660048036038101908080359060200190929190803573ffffffffffffffffffffffffffffffffffffffff1690602001909291908035906020019092919080351515906020019092919080359060200190929190505050611852565b005b3480156104b457600080fd5b5061051960048036038101908080359060200190929190803590602001908201803590602001908080601f0160208091040260200160405190810160405280939291908181526020018383808284378201915050505050509192919290505050611e48565b005b34801561052757600080fd5b5061054660048036038101908080359060200190929190505050612065565b604051808215151515815260200191505060405180910390f35b34801561056c57600080fd5b5061058b6004803603810190808035906020019092919050505061213a565b604051808273ffffffffffffffffffffffffffffffffffffffff1673ffffffffffffffffffffffffffffffffffffffff16815260200191505060405180910390f35b3480156105d957600080fd5b506105f86004803603810190808035906020019092919050505061220f565b6040518080602001828103825283818151815260200191508051906020019080838360005b8381101561063857808201518184015260208101905061061d565b50505050905090810190601f1680156106655780820380516001836020036101000a031916815260200191505b509250505060405180910390f35b34801561067f57600080fd5b506106886122cd565b005b34801561069657600080fd5b506106b5600480360381019080803590602001909291905050506123cf565b6040518080602001828103825283818151815260200191508051906020019080838360005b838110156106f55780820151818401526020810190506106da565b50505050905090810190601f1680156107225780820380516001836020036101000a031916815260200191505b509250505060405180910390f35b34801561073c57600080fd5b5061075b60048036038101908080359060200190929190505050612490565b604051808215151515815260200191505060405180910390f35b34801561078157600080fd5b506107a0600480360381019080803590602001909291905050506124a5565b005b6107c06004803603810190808035906020019092919050505061250a565b005b3480156107ce57600080fd5b506107d76126f6565b604051808273ffffffffffffffffffffffffffffffffffffffff1673ffffffffffffffffffffffffffffffffffffffff16815260200191505060405180910390f35b34801561082557600080fd5b506108446004803603810190808035906020019092919050505061271b565b6040518082815260200191505060405180910390f35b34801561086657600080fd5b5061088560048036038101908080359060200190929190505050612898565b604051808215151515815260200191505060405180910390f35b3480156108ab57600080fd5b506108b46128ad565b6040518080602001828103825283818151815260200191508051906020019060200280838360005b838110156108f75780820151818401526020810190506108dc565b505050509050019250505060405180910390f35b34801561091757600080fd5b5061093660048036038101908080359060200190929190505050612942565b604051808273ffffffffffffffffffffffffffffffffffffffff1673ffffffffffffffffffffffffffffffffffffffff16815260200191505060405180910390f35b34801561098457600080fd5b506109a360048036038101908080359060200190929190505050612975565b005b3480156109b157600080fd5b506109ba612ae9565b6040518080602001828103825283818151815260200191508051906020019060200280838360005b838110156109fd5780820151818401526020810190506109e2565b505050509050019250505060405180910390f35b348015610a1d57600080fd5b50610a78600480360381019080803590602001908201803590602001908080601f0160208091040260200160405190810160405280939291908181526020018383808284378201915050505050509192919290505050612b7e565b6040518082815260200191505060405180910390f35b348015610a9a57600080fd5b50610ac36004803603810190808035906020019092919080359060200190929190505050612d74565b6040518082815260200191505060405180910390f35b348015610ae557600080fd5b50610b0460048036038101908080359060200190929190505050612da4565b604051808473ffffffffffffffffffffffffffffffffffffffff1673ffffffffffffffffffffffffffffffffffffffff1681526020018381526020018260ff1660ff168152602001935050505060405180910390f35b348015610b6657600080fd5b50610ba76004803603810190808035906020019092919080356000191690602001909291908035906020019092919080359060200190929190505050612ec0565b005b348015610bb557600080fd5b50610bde6004803603810190808035906020019092919080359060200190929190505050613111565b604051808573ffffffffffffffffffffffffffffffffffffffff1673ffffffffffffffffffffffffffffffffffffffff1681526020018481526020018315151515815260200182815260200194505050505060405180910390f35b348015610c4557600080fd5b50610c4e61337a565b6040518080602001828103825283818151815260200191508051906020019060200280838360005b83811015610c91578082015181840152602081019050610c76565b505050509050019250505060405180910390f35b348015610cb157600080fd5b50610ce6600480360381019080803573ffffffffffffffffffffffffffffffffffffffff1690602001909291905050506134ec565b005b6000600d60009054906101000a900473ffffffffffffffffffffffffffffffffffffffff1673ffffffffffffffffffffffffffffffffffffffff1662fdd58e84846040518363ffffffff167c0100000000000000000000000000000000000000000000000000000000028152600401808373ffffffffffffffffffffffffffffffffffffffff1673ffffffffffffffffffffffffffffffffffffffff16815260200182815260200192505050602060405180830381600087803b158015610dae57600080fd5b505af1158015610dc2573d6000803e3d6000fd5b505050506040513d6020811015610dd857600080fd5b8101908080519060200190929190505050905092915050565b6000809054906101000a900473ffffffffffffffffffffffffffffffffffffffff1673ffffffffffffffffffffffffffffffffffffffff163373ffffffffffffffffffffffffffffffffffffffff16141515610e4c57600080fd5b806009600083604051602001808273ffffffffffffffffffffffffffffffffffffffff1673ffffffffffffffffffffffffffffffffffffffff1681526020019150506040516020818303038152906040526040518082805190602001908083835b602083101515610ed25780518252602082019150602081019050602083039250610ead565b6001836020036101000a03801982511681845116808217855250505050505090500191505060405180910390206000191660001916815260200190815260200160002060006101000a81548173ffffffffffffffffffffffffffffffffffffffff021916908373ffffffffffffffffffffffffffffffffffffffff16021790555050565b80600d60006101000a81548173ffffffffffffffffffffffffffffffffffffffff021916908373ffffffffffffffffffffffffffffffffffffffff16021790555050565b6000600d60009054906101000a900473ffffffffffffffffffffffffffffffffffffffff1673ffffffffffffffffffffffffffffffffffffffff166318160ddd6040518163ffffffff167c0100000000000000000000000000000000000000000000000000000000028152600401602060405180830381600087803b15801561102257600080fd5b505af1158015611036573d6000803e3d6000fd5b505050506040513d602081101561104c57600080fd5b8101908080519060200190929190505050905090565b836004600060028381548110151561107657fe5b906000526020600020906005020160000154815260200190815260200160002060009054906101000a900473ffffffffffffffffffffffffffffffffffffffff1673ffffffffffffffffffffffffffffffffffffffff163373ffffffffffffffffffffffffffffffffffffffff16141515611159576040517f08c379a000000000000000000000000000000000000000000000000000000000815260040180806020018281038252601d8152602001807f796f7520617265206e6f74206f776e6572206f662063546f6b656e496400000081525060200191505060405180910390fd5b8360028681548110151561116957fe5b9060005260206000209060050201600001819055508260028681548110151561118e57fe5b90600052602060002090600502016001018160001916905550816002868154811015156111b757fe5b9060005260206000209060050201600201819055507f643910755ff8667acb8e737703a1ecaf73f9edd726db2ae76de02bbbfc5f820a8585858560405180858152602001848152602001836000191660001916815260200182815260200194505050505060405180910390a15050505050565b60056020528160005260406000208181548110151561124557fe5b90600052602060002001600091509150505481565b6000600d60009054906101000a900473ffffffffffffffffffffffffffffffffffffffff1673ffffffffffffffffffffffffffffffffffffffff16634f558e79836040518263ffffffff167c010000000000000000000000000000000000000000000000000000000002815260040180828152602001915050602060405180830381600087803b1580156112ed57600080fd5b505af1158015611301573d6000803e3d6000fd5b505050506040513d602081101561131757600080fd5b8101908080519060200190929190505050151561139c576040517f08c379a000000000000000000000000000000000000000000000000000000000815260040180806020018281038252600d8152602001807f756e6b6e6f776e20746f6b656e0000000000000000000000000000000000000081525060200191505060405180910390fd5b346002838154811015156113ac57fe5b906000526020600020906005020160020154141515611459576040517f08c379a00000000000000000000000000000000000000000000000000000000081526004018080602001828103825260238152602001807f6d73672e76616c7565206973206e6f7420657175616c20746f20746f6b656e2081526020017f466565000000000000000000000000000000000000000000000000000000000081525060400191505060405180910390fd5b6004600083815260200190815260200160002060009054906101000a900473ffffffffffffffffffffffffffffffffffffffff1673ffffffffffffffffffffffffffffffffffffffff166108fc6002848154811015156114b557fe5b9060005260206000209060050201600201549081150290604051600060405180830381858888f193505050501580156114f2573d6000803e3d6000fd5b50600d60009054906101000a900473ffffffffffffffffffffffffffffffffffffffff1673ffffffffffffffffffffffffffffffffffffffff1663f5298aca6004600085815260200190815260200160002060009054906101000a900473ffffffffffffffffffffffffffffffffffffffff168460016040518463ffffffff167c0100000000000000000000000000000000000000000000000000000000028152600401808473ffffffffffffffffffffffffffffffffffffffff1673ffffffffffffffffffffffffffffffffffffffff1681526020018381526020018281526020019350505050600060405180830381600087803b1580156115f457600080fd5b505af1158015611608573d6000803e3d6000fd5b5050505061161833836000613553565b9050919050565b816004600060028381548110151561163357fe5b906000526020600020906005020160000154815260200190815260200160002060009054906101000a900473ffffffffffffffffffffffffffffffffffffffff1673ffffffffffffffffffffffffffffffffffffffff163373ffffffffffffffffffffffffffffffffffffffff16141515611716576040517f08c379a000000000000000000000000000000000000000000000000000000000815260040180806020018281038252601d8152602001807f796f7520617265206e6f74206f776e6572206f662063546f6b656e496400000081525060200191505060405180910390fd5b600d60009054906101000a900473ffffffffffffffffffffffffffffffffffffffff1673ffffffffffffffffffffffffffffffffffffffff166389a6ed2a8433856040518463ffffffff167c0100000000000000000000000000000000000000000000000000000000028152600401808481526020018373ffffffffffffffffffffffffffffffffffffffff1673ffffffffffffffffffffffffffffffffffffffff1681526020018281526020019350505050600060405180830381600087803b1580156117e357600080fd5b505af11580156117f7573d6000803e3d6000fd5b50505050505050565b60028181548110151561180f57fe5b90600052602060002090600502016000915090508060000154908060010154908060020154908060030154908060040160009054906101000a900460ff16905085565b6000856004600060028381548110151561186857fe5b906000526020600020906005020160000154815260200190815260200160002060009054906101000a900473ffffffffffffffffffffffffffffffffffffffff1673ffffffffffffffffffffffffffffffffffffffff163373ffffffffffffffffffffffffffffffffffffffff1614151561194b576040517f08c379a000000000000000000000000000000000000000000000000000000000815260040180806020018281038252601d8152602001807f796f7520617265206e6f74206f776e6572206f662063546f6b656e496400000081525060200191505060405180910390fd5b85600073ffffffffffffffffffffffffffffffffffffffff168173ffffffffffffffffffffffffffffffffffffffff161415151561198857600080fd5b8073ffffffffffffffffffffffffffffffffffffffff166009600083604051602001808273ffffffffffffffffffffffffffffffffffffffff1673ffffffffffffffffffffffffffffffffffffffff1681526020019150506040516020818303038152906040526040518082805190602001908083835b602083101515611a2457805182526020820191506020810190506020830392506119ff565b6001836020036101000a03801982511681845116808217855250505050505090500191505060405180910390206000191660001916815260200190815260200160002060009054906101000a900473ffffffffffffffffffffffffffffffffffffffff1673ffffffffffffffffffffffffffffffffffffffff16141515611b13576040517f08c379a00000000000000000000000000000000000000000000000000000000081526004018080602001828103825260178152602001807f796f7520617265206e6f74206469737472696275746f7200000000000000000081525060200191505060405180910390fd5b8415611c2457600092505b600a600089815260200190815260200160002080549050831015611c2357600a600089815260200190815260200160002083815481101515611b5c57fe5b906000526020600020906004020160020160009054906101000a900460ff16151515611c16576040517f08c379a000000000000000000000000000000000000000000000000000000000815260040180806020018281038252602e8152602001807f6578636c757369766520646973747269627574696f6e20636f6e74726163742081526020017f616c72656164792065786973747300000000000000000000000000000000000081525060400191505060405180910390fd5b8280600101935050611b1e565b5b600a60008981526020019081526020016000206080604051908101604052808973ffffffffffffffffffffffffffffffffffffffff1681526020018881526020018715158152602001868152509080600181540180825580915050906001820390600052602060002090600402016000909192909190915060008201518160000160006101000a81548173ffffffffffffffffffffffffffffffffffffffff021916908373ffffffffffffffffffffffffffffffffffffffff1602179055506020820151816001015560408201518160020160006101000a81548160ff021916908315150217905550606082015181600301555050506001600b60008a815260200190815260200160002060008973ffffffffffffffffffffffffffffffffffffffff1673ffffffffffffffffffffffffffffffffffffffff16815260200190815260200160002060006101000a81548160ff0219169083151502179055507f02a40fe5c011d57aeab22f4f2f5b46a09ed3515a3f7786d8939a78d87ea5648133888a898989604051808773ffffffffffffffffffffffffffffffffffffffff1673ffffffffffffffffffffffffffffffffffffffff1681526020018673ffffffffffffffffffffffffffffffffffffffff1673ffffffffffffffffffffffffffffffffffffffff16815260200185815260200184815260200183151515158152602001828152602001965050505050505060405180910390a15050505050505050565b816004600082815260200190815260200160002060009054906101000a900473ffffffffffffffffffffffffffffffffffffffff1673ffffffffffffffffffffffffffffffffffffffff163373ffffffffffffffffffffffffffffffffffffffff16141515611f1f576040517f08c379a00000000000000000000000000000000000000000000000000000000081526004018080602001828103825260188152602001807f796f7520617265206e6f74206f776e6572206f6620636964000000000000000081525060200191505060405180910390fd5b81600184815481101515611f2f57fe5b906000526020600020016000019080519060200190611f4f929190613abc565b507fd65e2ad9888084a38c2e252bf1157794ccf5dbcdc4756f5a53573692b35ef1d13384600186815481101515611f8257fe5b90600052602060002001600001604051808473ffffffffffffffffffffffffffffffffffffffff1673ffffffffffffffffffffffffffffffffffffffff168152602001838152602001806020018281038252838181546001816001161561010002031660029004815260200191508054600181600116156101000203166002900480156120505780601f1061202557610100808354040283529160200191612050565b820191906000526020600020905b81548152906001019060200180831161203357829003601f168201915b505094505050505060405180910390a1505050565b6000600d60009054906101000a900473ffffffffffffffffffffffffffffffffffffffff1673ffffffffffffffffffffffffffffffffffffffff16634f558e79836040518263ffffffff167c010000000000000000000000000000000000000000000000000000000002815260040180828152602001915050602060405180830381600087803b1580156120f857600080fd5b505af115801561210c573d6000803e3d6000fd5b505050506040513d602081101561212257600080fd5b81019080805190602001909291905050509050919050565b6000600d60009054906101000a900473ffffffffffffffffffffffffffffffffffffffff1673ffffffffffffffffffffffffffffffffffffffff16636352211e836040518263ffffffff167c010000000000000000000000000000000000000000000000000000000002815260040180828152602001915050602060405180830381600087803b1580156121cd57600080fd5b505af11580156121e1573d6000803e3d6000fd5b505050506040513d60208110156121f757600080fd5b81019080805190602001909291905050509050919050565b606060018281548110151561222057fe5b906000526020600020016000018054600181600116156101000203166002900480601f0160208091040260200160405190810160405280929190818152602001828054600181600116156101000203166002900480156122c15780601f10612296576101008083540402835291602001916122c1565b820191906000526020600020905b8154815290600101906020018083116122a457829003601f168201915b50505050509050919050565b6000809054906101000a900473ffffffffffffffffffffffffffffffffffffffff1673ffffffffffffffffffffffffffffffffffffffff163373ffffffffffffffffffffffffffffffffffffffff1614151561232857600080fd5b6000809054906101000a900473ffffffffffffffffffffffffffffffffffffffff1673ffffffffffffffffffffffffffffffffffffffff167ff8df31144d9c2f0f6b59d69b8b98abd5459d07f2742c4df920b25aae33c6482060405160405180910390a260008060006101000a81548173ffffffffffffffffffffffffffffffffffffffff021916908373ffffffffffffffffffffffffffffffffffffffff160217905550565b6001818154811015156123de57fe5b90600052602060002001600091509050806000018054600181600116156101000203166002900480601f0160208091040260200160405190810160405280929190818152602001828054600181600116156101000203166002900480156124865780601f1061245b57610100808354040283529160200191612486565b820191906000526020600020905b81548152906001019060200180831161246957829003601f168201915b5050505050905081565b60006003805490506001830111159050919050565b6000809054906101000a900473ffffffffffffffffffffffffffffffffffffffff1673ffffffffffffffffffffffffffffffffffffffff163373ffffffffffffffffffffffffffffffffffffffff1614151561250057600080fd5b80600c8190555050565b806004600060028381548110151561251e57fe5b906000526020600020906005020160000154815260200190815260200160002060009054906101000a900473ffffffffffffffffffffffffffffffffffffffff1673ffffffffffffffffffffffffffffffffffffffff163373ffffffffffffffffffffffffffffffffffffffff16141515612601576040517f08c379a000000000000000000000000000000000000000000000000000000000815260040180806020018281038252601d8152602001807f796f7520617265206e6f74206f776e6572206f662063546f6b656e496400000081525060200191505060405180910390fd5b600c543414151561261157600080fd5b6001151560028381548110151561262457fe5b906000526020600020906005020160040160009054906101000a900460ff16151514151561265157600080fd5b600060028381548110151561266257fe5b906000526020600020906005020160040160006101000a81548160ff0219169083151502179055506000809054906101000a900473ffffffffffffffffffffffffffffffffffffffff1673ffffffffffffffffffffffffffffffffffffffff166108fc349081150290604051600060405180830381858888f193505050501580156126f1573d6000803e3d6000fd5b505050565b6000809054906101000a900473ffffffffffffffffffffffffffffffffffffffff1681565b6000816004600060028381548110151561273157fe5b906000526020600020906005020160000154815260200190815260200160002060009054906101000a900473ffffffffffffffffffffffffffffffffffffffff1673ffffffffffffffffffffffffffffffffffffffff163373ffffffffffffffffffffffffffffffffffffffff1614806128055750600b600082815260200190815260200160002060003373ffffffffffffffffffffffffffffffffffffffff1673ffffffffffffffffffffffffffffffffffffffff16815260200190815260200160002060009054906101000a900460ff165b1515612879576040517f08c379a000000000000000000000000000000000000000000000000000000000815260040180806020018281038252601b8152602001807f796f7520617265206e6f7420617574686f72697a65642075736572000000000081525060200191505060405180910390fd5b600a600084815260200190815260200160002080549050915050919050565b60006001805490506001830111159050919050565b6060600860003373ffffffffffffffffffffffffffffffffffffffff1673ffffffffffffffffffffffffffffffffffffffff16815260200190815260200160002080548060200260200160405190810160405280929190818152602001828054801561293857602002820191906000526020600020905b815481526020019060010190808311612924575b5050505050905090565b60046020528060005260406000206000915054906101000a900473ffffffffffffffffffffffffffffffffffffffff1681565b806004600060028381548110151561298957fe5b906000526020600020906005020160000154815260200190815260200160002060009054906101000a900473ffffffffffffffffffffffffffffffffffffffff1673ffffffffffffffffffffffffffffffffffffffff163373ffffffffffffffffffffffffffffffffffffffff16141515612a6c576040517f08c379a000000000000000000000000000000000000000000000000000000000815260040180806020018281038252601d8152602001807f796f7520617265206e6f74206f776e6572206f662063546f6b656e496400000081525060200191505060405180910390fd5b60001515600283815481101515612a7f57fe5b906000526020600020906005020160040160009054906101000a900460ff161515141515612aac57600080fd5b6001600283815481101515612abd57fe5b906000526020600020906005020160040160006101000a81548160ff0219169083151502179055505050565b6060600560003373ffffffffffffffffffffffffffffffffffffffff1673ffffffffffffffffffffffffffffffffffffffff168152602001908152602001600020805480602002602001604051908101604052809291908181526020018280548015612b7457602002820191906000526020600020905b815481526020019060010190808311612b60575b5050505050905090565b6000600180602060405190810160405280858152509080600181540180825580915050906001820390600052602060002001600090919290919091506000820151816000019080519060200190612bd6929190613b3c565b505050039050336004600083815260200190815260200160002060006101000a81548173ffffffffffffffffffffffffffffffffffffffff021916908373ffffffffffffffffffffffffffffffffffffffff160217905550600560003373ffffffffffffffffffffffffffffffffffffffff1673ffffffffffffffffffffffffffffffffffffffff1681526020019081526020016000208190806001815401808255809150509060018203906000526020600020016000909192909190915055507f6f9b3bbe5f213ee7243d1c48ab7ddadb31ce7de515d0f3ea89b32820ede0ae59338284604051808473ffffffffffffffffffffffffffffffffffffffff1673ffffffffffffffffffffffffffffffffffffffff16815260200183815260200180602001828103825283818151815260200191508051906020019080838360005b83811015612d33578082015181840152602081019050612d18565b50505050905090810190601f168015612d605780820380516001836020036101000a031916815260200191505b5094505050505060405180910390a1919050565b600660205281600052604060002081815481101515612d8f57fe5b90600052602060002001600091509150505481565b6000806000836007600082815260200190815260200160002060009054906101000a900473ffffffffffffffffffffffffffffffffffffffff1673ffffffffffffffffffffffffffffffffffffffff163373ffffffffffffffffffffffffffffffffffffffff16141515612e1757600080fd5b600385815481101515612e2657fe5b906000526020600020906003020160000160009054906101000a900473ffffffffffffffffffffffffffffffffffffffff16600386815481101515612e6757fe5b906000526020600020906003020160010154600387815481101515612e8857fe5b906000526020600020906003020160020160009054906101000a900460ff166002811115612eb257fe5b935093509350509193909250565b6000846004600082815260200190815260200160002060009054906101000a900473ffffffffffffffffffffffffffffffffffffffff1673ffffffffffffffffffffffffffffffffffffffff163373ffffffffffffffffffffffffffffffffffffffff16141515612f99576040517f08c379a00000000000000000000000000000000000000000000000000000000081526004018080602001828103825260188152602001807f796f7520617265206e6f74206f776e6572206f6620636964000000000000000081525060200191505060405180910390fd5b612fa286612898565b1515613016576040517f08c379a000000000000000000000000000000000000000000000000000000000815260040180806020018281038252600c8152602001807f756e6b6e6f776e2064617461000000000000000000000000000000000000000081525060200191505060405180910390fd5b61302286868686613793565b9150600d60009054906101000a900473ffffffffffffffffffffffffffffffffffffffff1673ffffffffffffffffffffffffffffffffffffffff166389a6ed2a8333866040518463ffffffff167c0100000000000000000000000000000000000000000000000000000000028152600401808481526020018373ffffffffffffffffffffffffffffffffffffffff1673ffffffffffffffffffffffffffffffffffffffff1681526020018281526020019350505050600060405180830381600087803b1580156130f157600080fd5b505af1158015613105573d6000803e3d6000fd5b50505050505050505050565b600080600080856004600060028381548110151561312b57fe5b906000526020600020906005020160000154815260200190815260200160002060009054906101000a900473ffffffffffffffffffffffffffffffffffffffff1673ffffffffffffffffffffffffffffffffffffffff163373ffffffffffffffffffffffffffffffffffffffff1614806131ff5750600b600082815260200190815260200160002060003373ffffffffffffffffffffffffffffffffffffffff1673ffffffffffffffffffffffffffffffffffffffff16815260200190815260200160002060009054906101000a900460ff165b1515613273576040517f08c379a000000000000000000000000000000000000000000000000000000000815260040180806020018281038252601b8152602001807f796f7520617265206e6f7420617574686f72697a65642075736572000000000081525060200191505060405180910390fd5b600a60008881526020019081526020016000208681548110151561329357fe5b906000526020600020906004020160000160009054906101000a900473ffffffffffffffffffffffffffffffffffffffff16600a6000898152602001908152602001600020878154811015156132e557fe5b906000526020600020906004020160010154600a60008a81526020019081526020016000208881548110151561331757fe5b906000526020600020906004020160020160009054906101000a900460ff16600a60008b81526020019081526020016000208981548110151561335657fe5b90600052602060002090600402016003015494509450945094505092959194509250565b6060600060606000606060008060009550613393612ae9565b9450600093505b84518410156133e2576006600086868151811015156133b557fe5b9060200190602002015181526020019081526020016000208054905086019550838060010194505061339a565b856040519080825280602002602001820160405280156134115781602001602082028038833980820191505090505b50925060009150600093505b84518410156134e057600090505b60066000868681518110151561343d57fe5b906020019060200201518152602001908152602001600020805490508110156134d35760066000868681518110151561347257fe5b9060200190602002015181526020019081526020016000208181548110151561349757fe5b906000526020600020015483838151811015156134b057fe5b90602001906020020181815250508180600101925050808060010191505061342b565b838060010194505061341d565b82965050505050505090565b6000809054906101000a900473ffffffffffffffffffffffffffffffffffffffff1673ffffffffffffffffffffffffffffffffffffffff163373ffffffffffffffffffffffffffffffffffffffff1614151561354757600080fd5b613550816139c2565b50565b600080600160036060604051908101604052808873ffffffffffffffffffffffffffffffffffffffff16815260200187815260200186600281111561359457fe5b8152509080600181540180825580915050906001820390600052602060002090600302016000909192909190915060008201518160000160006101000a81548173ffffffffffffffffffffffffffffffffffffffff021916908373ffffffffffffffffffffffffffffffffffffffff1602179055506020820151816001015560408201518160020160006101000a81548160ff0219169083600281111561363757fe5b02179055505050039050336007600083815260200190815260200160002060006101000a81548173ffffffffffffffffffffffffffffffffffffffff021916908373ffffffffffffffffffffffffffffffffffffffff160217905550600860003373ffffffffffffffffffffffffffffffffffffffff1673ffffffffffffffffffffffffffffffffffffffff1681526020019081526020016000208190806001815401808255809150509060018203906000526020600020016000909192909190915055507fbca2a65e915129b3b540aa6168e921bda31a8042a0968a50413196664a5a257833828686600281111561372c57fe5b604051808573ffffffffffffffffffffffffffffffffffffffff1673ffffffffffffffffffffffffffffffffffffffff1681526020018481526020018381526020018260ff1660ff16815260200194505050505060405180910390a1809150509392505050565b6000846004600082815260200190815260200160002060009054906101000a900473ffffffffffffffffffffffffffffffffffffffff1673ffffffffffffffffffffffffffffffffffffffff163373ffffffffffffffffffffffffffffffffffffffff1614151561386c576040517f08c379a00000000000000000000000000000000000000000000000000000000081526004018080602001828103825260188152602001807f796f7520617265206e6f74206f776e6572206f6620636964000000000000000081525060200191505060405180910390fd5b6001600260a0604051908101604052808981526020018860001916815260200187815260200186815260200160011515815250908060018154018082558091505090600182039060005260206000209060050201600090919290919091506000820151816000015560208201518160010190600019169055604082015181600201556060820151816003015560808201518160040160006101000a81548160ff0219169083151502179055505050039150600660008781526020019081526020016000208290806001815401808255809150509060018203906000526020600020016000909192909190915055507f1effac580600b478c622ba91ef8dad38bc2c53f59c830f7fcace41978342019382878787876040518086815260200185815260200184600019166000191681526020018381526020018281526020019550505050505060405180910390a150949350505050565b600073ffffffffffffffffffffffffffffffffffffffff168173ffffffffffffffffffffffffffffffffffffffff16141515156139fe57600080fd5b8073ffffffffffffffffffffffffffffffffffffffff166000809054906101000a900473ffffffffffffffffffffffffffffffffffffffff1673ffffffffffffffffffffffffffffffffffffffff167f8be0079c531659141344cd1fd0a4f28419497f9722a3daafe3b4186f6b6457e060405160405180910390a3806000806101000a81548173ffffffffffffffffffffffffffffffffffffffff021916908373ffffffffffffffffffffffffffffffffffffffff16021790555050565b828054600181600116156101000203166002900490600052602060002090601f016020900481019282601f10613afd57805160ff1916838001178555613b2b565b82800160010185558215613b2b579182015b82811115613b2a578251825591602001919060010190613b0f565b5b509050613b389190613bbc565b5090565b828054600181600116156101000203166002900490600052602060002090601f016020900481019282601f10613b7d57805160ff1916838001178555613bab565b82800160010185558215613bab579182015b82811115613baa578251825591602001919060010190613b8f565b5b509050613bb89190613bbc565b5090565b613bde91905b80821115613bda576000816000905550600101613bc2565b5090565b905600a165627a7a7230582078c923806d18368f59033aea7f3a95633309905273cafd4a5b73fec30714c13f0029",
  "source": "pragma solidity ^0.4.24;\n\nimport \"./BFactory.sol\";\n// import \"./Core/ERC721Z/ERC721ZToken.sol\";\nimport \"./Interfaces/ERC721Z.sol\";\n\ncontract BToken is BFactory {\n\n  ERC721Z ERC721ZInterface;\n\n  // ERC721ZInterface tools\n  function setERC721ZInterface(address contractAddress) public{\n    ERC721ZInterface = ERC721Z(contractAddress);\n  }\n\n  function balanceOf(address owner, uint256 cTokenId) public view returns (uint256) {\n    return ERC721ZInterface.balanceOf(owner, cTokenId);\n  }\n\n  function exists(uint256 _tokenId) public view returns (bool) {\n    return ERC721ZInterface.exists(_tokenId);\n  }\n\n  function ownerOf(uint256 _tokenId) public view returns (address _owner) {\n    return ERC721ZInterface.ownerOf(_tokenId);\n  }\n\n  function totalSupply() public view returns (uint256) {\n    return ERC721ZInterface.totalSupply();\n  }\n\n  // register contents\n  function registerData(string titLe) public returns (uint cid) {\n    cid = _CIDs.push(Data_(titLe)) - 1;\n    CID2Provider[cid] = msg.sender;\n    Provider2CID[msg.sender].push(cid);\n    emit NewData(msg.sender, cid, titLe);\n  }\n\n  // increate the number of contents token\n  function mintX_withTokenID(uint cTokenId, uint256 suppLy) external onlyProviderOfCTokenID(cTokenId) {\n    ERC721ZInterface._mint(cTokenId, msg.sender, suppLy);\n  }\n\n  function registerHash(uint cid, bytes32 hash, uint fee, uint supply) external onlyProviderOfCID(cid) {\n    require(existsD(cid), \"unknown data\");\n    uint cTokenId = _CreateCToken(cid, hash, fee, supply);\n    ERC721ZInterface._mint(cTokenId, msg.sender, supply);\n  }\n\n  function enrollDistributor(address distributor) external onlyOwner {\n    Distributors[keccak256(abi.encode(distributor))] = distributor;\n  }\n\n  function distContract(uint cTokenId, address distributor, uint cost, bool exclusivity, uint timeout) external onlyProviderOfCTokenID(cTokenId) onlyDistributorOf(distributor) {\n    if(exclusivity) {\n      for(uint i = 0; i < CTokenID2DistCon[cTokenId].length; i++) {\n        require(!CTokenID2DistCon[cTokenId][i]._Exclusivity, \"exclusive distribution contract already exists\");\n      }\n    }\n    CTokenID2DistCon[cTokenId].push(DistCon_(distributor, cost, exclusivity, timeout));\n    AuthorizedUsers[cTokenId][distributor] = true;\n    emit NewDistCon(msg.sender, distributor, cTokenId, cost, exclusivity, timeout);\n  }\n\n  function getDistContracts(uint cTokenId) view public onlyAuthorizedOf(cTokenId) returns (uint count){\n    count = CTokenID2DistCon[cTokenId].length;\n  }\n\n  function getDistConDetails(uint cTokenId, uint index) view external onlyAuthorizedOf(cTokenId) returns (address distributor, uint cost, bool exclusivity, uint timeout) {\n      return (\n        CTokenID2DistCon[cTokenId][index]._Distributor,\n        CTokenID2DistCon[cTokenId][index]._Cost,\n        CTokenID2DistCon[cTokenId][index]._Exclusivity,\n        CTokenID2DistCon[cTokenId][index]._Timeout\n      );\n  }\n\n  // buy contents token\n  function buyToken(uint cTokenId) payable public returns (uint uTokenId){\n    require(ERC721ZInterface.exists(cTokenId), \"unknown token\");\n    require(_CTs[cTokenId]._Fee == msg.value, \"msg.value is not equal to token Fee\");\n\n    CID2Provider[cTokenId].transfer(_CTs[cTokenId]._Fee);\n    ERC721ZInterface.burn(CID2Provider[cTokenId], cTokenId, 1);\n    uTokenId = _CreateUToken(msg.sender, cTokenId, UTokenState_.sold);\n  }\n}\n",
  "sourcePath": "/home/kim/workspace/bigchain/TruffLeBToken/contracts/BToken.sol",
  "compiler": {
    "name": "solc",
    "version": "0.4.25+commit.59dbf8f1.Emscripten.clang"
  },
  "schemaVersion": "2.0.2",
  "updatedAt": "2020-02-19T03:40:15.309Z"
}