{
  "contractName": "ERC721ZToken",
  "abi": [
    {
      "constant": true,
      "inputs": [
        {
          "name": "_owner",
          "type": "address"
        },
        {
          "name": "_tokenId",
          "type": "uint256"
        }
      ],
      "name": "balanceOf",
      "outputs": [
        {
          "name": "",
          "type": "uint256"
        }
      ],
      "payable": false,
      "stateMutability": "view",
      "type": "function"
    },
    {
      "constant": true,
      "inputs": [
        {
          "name": "_interfaceId",
          "type": "bytes4"
        }
      ],
      "name": "supportsInterface",
      "outputs": [
        {
          "name": "",
          "type": "bool"
        }
      ],
      "payable": false,
      "stateMutability": "view",
      "type": "function"
    },
    {
      "constant": true,
      "inputs": [],
      "name": "name",
      "outputs": [
        {
          "name": "",
          "type": "string"
        }
      ],
      "payable": false,
      "stateMutability": "view",
      "type": "function"
    },
    {
      "constant": true,
      "inputs": [
        {
          "name": "_tokenId",
          "type": "uint256"
        }
      ],
      "name": "getApproved",
      "outputs": [
        {
          "name": "",
          "type": "address"
        }
      ],
      "payable": false,
      "stateMutability": "view",
      "type": "function"
    },
    {
      "constant": false,
      "inputs": [
        {
          "name": "_to",
          "type": "address"
        },
        {
          "name": "_tokenId",
          "type": "uint256"
        }
      ],
      "name": "approve",
      "outputs": [],
      "payable": false,
      "stateMutability": "nonpayable",
      "type": "function"
    },
    {
      "constant": true,
      "inputs": [],
      "name": "implementsERC721",
      "outputs": [
        {
          "name": "",
          "type": "bool"
        }
      ],
      "payable": false,
      "stateMutability": "pure",
      "type": "function"
    },
    {
      "constant": true,
      "inputs": [],
      "name": "totalSupply",
      "outputs": [
        {
          "name": "",
          "type": "uint256"
        }
      ],
      "payable": false,
      "stateMutability": "view",
      "type": "function"
    },
    {
      "constant": true,
      "inputs": [],
      "name": "InterfaceId_ERC165",
      "outputs": [
        {
          "name": "",
          "type": "bytes4"
        }
      ],
      "payable": false,
      "stateMutability": "view",
      "type": "function"
    },
    {
      "constant": true,
      "inputs": [
        {
          "name": "_address",
          "type": "address"
        },
        {
          "name": "_tokenId",
          "type": "uint256"
        }
      ],
      "name": "checkInfinity",
      "outputs": [
        {
          "name": "",
          "type": "bool"
        }
      ],
      "payable": false,
      "stateMutability": "view",
      "type": "function"
    },
    {
      "constant": true,
      "inputs": [
        {
          "name": "_tokenId",
          "type": "uint256"
        }
      ],
      "name": "exists",
      "outputs": [
        {
          "name": "",
          "type": "bool"
        }
      ],
      "payable": false,
      "stateMutability": "view",
      "type": "function"
    },
    {
      "constant": true,
      "inputs": [
        {
          "name": "_index",
          "type": "uint256"
        }
      ],
      "name": "tokenByIndex",
      "outputs": [
        {
          "name": "",
          "type": "uint256"
        }
      ],
      "payable": false,
      "stateMutability": "view",
      "type": "function"
    },
    {
      "constant": true,
      "inputs": [
        {
          "name": "_tokenId",
          "type": "uint256"
        }
      ],
      "name": "ownerOf",
      "outputs": [
        {
          "name": "",
          "type": "address"
        }
      ],
      "payable": false,
      "stateMutability": "view",
      "type": "function"
    },
    {
      "constant": false,
      "inputs": [],
      "name": "renounceOwnership",
      "outputs": [],
      "payable": false,
      "stateMutability": "nonpayable",
      "type": "function"
    },
    {
      "constant": true,
      "inputs": [],
      "name": "owner",
      "outputs": [
        {
          "name": "",
          "type": "address"
        }
      ],
      "payable": false,
      "stateMutability": "view",
      "type": "function"
    },
    {
      "constant": true,
      "inputs": [],
      "name": "symbol",
      "outputs": [
        {
          "name": "",
          "type": "string"
        }
      ],
      "payable": false,
      "stateMutability": "view",
      "type": "function"
    },
    {
      "constant": false,
      "inputs": [
        {
          "name": "_operator",
          "type": "address"
        },
        {
          "name": "_approved",
          "type": "bool"
        }
      ],
      "name": "setApprovalForAll",
      "outputs": [],
      "payable": false,
      "stateMutability": "nonpayable",
      "type": "function"
    },
    {
      "constant": true,
      "inputs": [
        {
          "name": "_tokenId",
          "type": "uint256"
        }
      ],
      "name": "tokenURI",
      "outputs": [
        {
          "name": "tokenUri",
          "type": "string"
        }
      ],
      "payable": false,
      "stateMutability": "view",
      "type": "function"
    },
    {
      "constant": true,
      "inputs": [
        {
          "name": "_owner",
          "type": "address"
        },
        {
          "name": "_operator",
          "type": "address"
        }
      ],
      "name": "isApprovedForAll",
      "outputs": [
        {
          "name": "isOperator",
          "type": "bool"
        }
      ],
      "payable": false,
      "stateMutability": "view",
      "type": "function"
    },
    {
      "constant": false,
      "inputs": [
        {
          "name": "_newOwner",
          "type": "address"
        }
      ],
      "name": "transferOwnership",
      "outputs": [],
      "payable": false,
      "stateMutability": "nonpayable",
      "type": "function"
    },
    {
      "anonymous": false,
      "inputs": [
        {
          "indexed": false,
          "name": "from",
          "type": "address"
        },
        {
          "indexed": false,
          "name": "to",
          "type": "address"
        },
        {
          "indexed": false,
          "name": "tokenTypes",
          "type": "uint256[]"
        },
        {
          "indexed": false,
          "name": "amounts",
          "type": "uint256[]"
        }
      ],
      "name": "BatchTransfer",
      "type": "event"
    },
    {
      "anonymous": false,
      "inputs": [
        {
          "indexed": true,
          "name": "previousOwner",
          "type": "address"
        }
      ],
      "name": "OwnershipRenounced",
      "type": "event"
    },
    {
      "anonymous": false,
      "inputs": [
        {
          "indexed": true,
          "name": "previousOwner",
          "type": "address"
        },
        {
          "indexed": true,
          "name": "newOwner",
          "type": "address"
        }
      ],
      "name": "OwnershipTransferred",
      "type": "event"
    },
    {
      "anonymous": false,
      "inputs": [
        {
          "indexed": true,
          "name": "_from",
          "type": "address"
        },
        {
          "indexed": true,
          "name": "_to",
          "type": "address"
        },
        {
          "indexed": true,
          "name": "_tokenId",
          "type": "uint256"
        }
      ],
      "name": "Transfer",
      "type": "event"
    },
    {
      "anonymous": false,
      "inputs": [
        {
          "indexed": true,
          "name": "_owner",
          "type": "address"
        },
        {
          "indexed": true,
          "name": "_approved",
          "type": "address"
        },
        {
          "indexed": true,
          "name": "_tokenId",
          "type": "uint256"
        }
      ],
      "name": "Approval",
      "type": "event"
    },
    {
      "anonymous": false,
      "inputs": [
        {
          "indexed": true,
          "name": "_owner",
          "type": "address"
        },
        {
          "indexed": true,
          "name": "_operator",
          "type": "address"
        },
        {
          "indexed": false,
          "name": "_approved",
          "type": "bool"
        }
      ],
      "name": "ApprovalForAll",
      "type": "event"
    },
    {
      "anonymous": false,
      "inputs": [
        {
          "indexed": true,
          "name": "from",
          "type": "address"
        },
        {
          "indexed": true,
          "name": "to",
          "type": "address"
        },
        {
          "indexed": true,
          "name": "tokenId",
          "type": "uint256"
        },
        {
          "indexed": false,
          "name": "quantity",
          "type": "uint256"
        }
      ],
      "name": "TransferWithQuantity",
      "type": "event"
    },
    {
      "constant": true,
      "inputs": [],
      "name": "implementsERC721Z",
      "outputs": [
        {
          "name": "",
          "type": "bool"
        }
      ],
      "payable": false,
      "stateMutability": "pure",
      "type": "function"
    },
    {
      "constant": false,
      "inputs": [
        {
          "name": "contractAddress",
          "type": "address"
        }
      ],
      "name": "setOnlyContract",
      "outputs": [],
      "payable": false,
      "stateMutability": "nonpayable",
      "type": "function"
    },
    {
      "constant": true,
      "inputs": [],
      "name": "getOnlyContract",
      "outputs": [
        {
          "name": "",
          "type": "address"
        }
      ],
      "payable": false,
      "stateMutability": "view",
      "type": "function"
    },
    {
      "constant": false,
      "inputs": [
        {
          "name": "_from",
          "type": "address"
        },
        {
          "name": "_to",
          "type": "address"
        },
        {
          "name": "_tokenIds",
          "type": "uint256[]"
        },
        {
          "name": "_amounts",
          "type": "uint256[]"
        }
      ],
      "name": "batchTransferFrom",
      "outputs": [],
      "payable": false,
      "stateMutability": "nonpayable",
      "type": "function"
    },
    {
      "constant": false,
      "inputs": [
        {
          "name": "_to",
          "type": "address"
        },
        {
          "name": "_tokenId",
          "type": "uint256"
        },
        {
          "name": "_amount",
          "type": "uint256"
        }
      ],
      "name": "transfer",
      "outputs": [],
      "payable": false,
      "stateMutability": "nonpayable",
      "type": "function"
    },
    {
      "constant": false,
      "inputs": [
        {
          "name": "_from",
          "type": "address"
        },
        {
          "name": "_to",
          "type": "address"
        },
        {
          "name": "_tokenId",
          "type": "uint256"
        },
        {
          "name": "_amount",
          "type": "uint256"
        }
      ],
      "name": "transferFrom",
      "outputs": [],
      "payable": false,
      "stateMutability": "nonpayable",
      "type": "function"
    },
    {
      "constant": false,
      "inputs": [
        {
          "name": "_from",
          "type": "address"
        },
        {
          "name": "_tokenId",
          "type": "uint256"
        },
        {
          "name": "_amount",
          "type": "uint256"
        }
      ],
      "name": "burn",
      "outputs": [],
      "payable": false,
      "stateMutability": "nonpayable",
      "type": "function"
    },
    {
      "constant": false,
      "inputs": [
        {
          "name": "_tokenId",
          "type": "uint256"
        },
        {
          "name": "_to",
          "type": "address"
        },
        {
          "name": "_supply",
          "type": "uint256"
        }
      ],
      "name": "_mint",
      "outputs": [],
      "payable": false,
      "stateMutability": "nonpayable",
      "type": "function"
    },
    {
      "constant": false,
      "inputs": [
        {
          "name": "_tokenId",
          "type": "uint256"
        },
        {
          "name": "_to",
          "type": "address"
        }
      ],
      "name": "_mint",
      "outputs": [],
      "payable": false,
      "stateMutability": "nonpayable",
      "type": "function"
    }
  ],
  "bytecode": "0x60806040526000600860006101000a81548173ffffffffffffffffffffffffffffffffffffffff021916908373ffffffffffffffffffffffffffffffffffffffff160217905550620000836301ffc9a77c01000000000000000000000000000000000000000000000000000000000262000107640100000000026401000000009004565b620000c0635b5e139f7c01000000000000000000000000000000000000000000000000000000000262000107640100000000026401000000009004565b33600760006101000a81548173ffffffffffffffffffffffffffffffffffffffff021916908373ffffffffffffffffffffffffffffffffffffffff160217905550620001c5565b63ffffffff7c010000000000000000000000000000000000000000000000000000000002817bffffffffffffffffffffffffffffffffffffffffffffffffffffffff1916141515156200015957600080fd5b6001600080837bffffffffffffffffffffffffffffffffffffffffffffffffffffffff19167bffffffffffffffffffffffffffffffffffffffffffffffffffffffff1916815260200190815260200160002060006101000a81548160ff02191690831515021790555050565b612ec680620001d56000396000f300608060405260043610610169576000357c0100000000000000000000000000000000000000000000000000000000900463ffffffff168062fdd58e1461016e57806301ffc9a7146101cf57806306fdde0314610233578063081812fc146102c3578063095bcdb614610330578063095ea7b3146103875780631051db34146103d457806317fad7fc1461040357806318160ddd146104ec57806319fa8f50146105175780631a5d17d2146105805780634f558e79146105e55780634f6ccce71461062a5780635c8746ff1461066b5780636352211e146106ae578063715018a61461071b5780637ed41b081461073257806389a6ed2a146107615780638da5cb5b146107b857806395d89b411461080f578063a22cb4651461089f578063c87b56dd146108ee578063e855aee514610994578063e985e9c5146109e1578063f2fde38b14610a5c578063f5298aca14610a9f578063fcef24c414610af6578063fe99049a14610b4d575b600080fd5b34801561017a57600080fd5b506101b9600480360381019080803573ffffffffffffffffffffffffffffffffffffffff16906020019092919080359060200190929190505050610bc4565b6040518082815260200191505060405180910390f35b3480156101db57600080fd5b5061021960048036038101908080357bffffffffffffffffffffffffffffffffffffffffffffffffffffffff19169060200190929190505050610c34565b604051808215151515815260200191505060405180910390f35b34801561023f57600080fd5b50610248610c9b565b6040518080602001828103825283818151815260200191508051906020019080838360005b8381101561028857808201518184015260208101905061026d565b50505050905090810190601f1680156102b55780820380516001836020036101000a031916815260200191505b509250505060405180910390f35b3480156102cf57600080fd5b506102ee60048036038101908080359060200190929190505050610cd8565b604051808273ffffffffffffffffffffffffffffffffffffffff1673ffffffffffffffffffffffffffffffffffffffff16815260200191505060405180910390f35b34801561033c57600080fd5b50610385600480360381019080803573ffffffffffffffffffffffffffffffffffffffff1690602001909291908035906020019092919080359060200190929190505050610d15565b005b34801561039357600080fd5b506103d2600480360381019080803573ffffffffffffffffffffffffffffffffffffffff16906020019092919080359060200190929190505050610d26565b005b3480156103e057600080fd5b506103e9610e6b565b604051808215151515815260200191505060405180910390f35b34801561040f57600080fd5b506104ea600480360381019080803573ffffffffffffffffffffffffffffffffffffffff169060200190929190803573ffffffffffffffffffffffffffffffffffffffff1690602001909291908035906020019082018035906020019080806020026020016040519081016040528093929190818152602001838360200280828437820191505050505050919291929080359060200190820180359060200190808060200260200160405190810160405280939291908181526020018383602002808284378201915050505050509192919290505050610e74565b005b3480156104f857600080fd5b50610501610e86565b6040518082815260200191505060405180910390f35b34801561052357600080fd5b5061052c610e93565b60405180827bffffffffffffffffffffffffffffffffffffffffffffffffffffffff19167bffffffffffffffffffffffffffffffffffffffffffffffffffffffff1916815260200191505060405180910390f35b34801561058c57600080fd5b506105cb600480360381019080803573ffffffffffffffffffffffffffffffffffffffff16906020019092919080359060200190929190505050610eba565b604051808215151515815260200191505060405180910390f35b3480156105f157600080fd5b5061061060048036038101908080359060200190929190505050610f25565b604051808215151515815260200191505060405180910390f35b34801561063657600080fd5b5061065560048036038101908080359060200190929190505050610f45565b6040518082815260200191505060405180910390f35b34801561067757600080fd5b506106ac600480360381019080803573ffffffffffffffffffffffffffffffffffffffff169060200190929190505050610f7d565b005b3480156106ba57600080fd5b506106d9600480360381019080803590602001909291905050506110ac565b604051808273ffffffffffffffffffffffffffffffffffffffff1673ffffffffffffffffffffffffffffffffffffffff16815260200191505060405180910390f35b34801561072757600080fd5b506107306111c0565b005b34801561073e57600080fd5b506107476112c5565b604051808215151515815260200191505060405180910390f35b34801561076d57600080fd5b506107b660048036038101908080359060200190929190803573ffffffffffffffffffffffffffffffffffffffff169060200190929190803590602001909291905050506112ce565b005b3480156107c457600080fd5b506107cd6115dd565b604051808273ffffffffffffffffffffffffffffffffffffffff1673ffffffffffffffffffffffffffffffffffffffff16815260200191505060405180910390f35b34801561081b57600080fd5b50610824611603565b6040518080602001828103825283818151815260200191508051906020019080838360005b83811015610864578082015181840152602081019050610849565b50505050905090810190601f1680156108915780820380516001836020036101000a031916815260200191505b509250505060405180910390f35b3480156108ab57600080fd5b506108ec600480360381019080803573ffffffffffffffffffffffffffffffffffffffff169060200190929190803515159060200190929190505050611640565b005b3480156108fa57600080fd5b5061091960048036038101908080359060200190929190505050611741565b6040518080602001828103825283818151815260200191508051906020019080838360005b8381101561095957808201518184015260208101905061093e565b50505050905090810190601f1680156109865780820380516001836020036101000a031916815260200191505b509250505060405180910390f35b3480156109a057600080fd5b506109df60048036038101908080359060200190929190803573ffffffffffffffffffffffffffffffffffffffff169060200190929190505050611b1d565b005b3480156109ed57600080fd5b50610a42600480360381019080803573ffffffffffffffffffffffffffffffffffffffff169060200190929190803573ffffffffffffffffffffffffffffffffffffffff169060200190929190505050611cc5565b604051808215151515815260200191505060405180910390f35b348015610a6857600080fd5b50610a9d600480360381019080803573ffffffffffffffffffffffffffffffffffffffff169060200190929190505050611d59565b005b348015610aab57600080fd5b50610af4600480360381019080803573ffffffffffffffffffffffffffffffffffffffff1690602001909291908035906020019092919080359060200190929190505050611dc1565b005b348015610b0257600080fd5b50610b0b611ead565b604051808273ffffffffffffffffffffffffffffffffffffffff1673ffffffffffffffffffffffffffffffffffffffff16815260200191505060405180910390f35b348015610b5957600080fd5b50610bc2600480360381019080803573ffffffffffffffffffffffffffffffffffffffff169060200190929190803573ffffffffffffffffffffffffffffffffffffffff1690602001909291908035906020019092919080359060200190929190505050611fc2565b005b6000600660008473ffffffffffffffffffffffffffffffffffffffff1673ffffffffffffffffffffffffffffffffffffffff168152602001908152602001600020600083815260200190815260200160002060000160009054906101000a900461ffff1661ffff16905092915050565b6000806000837bffffffffffffffffffffffffffffffffffffffffffffffffffffffff19167bffffffffffffffffffffffffffffffffffffffffffffffffffffffff1916815260200190815260200160002060009054906101000a900460ff169050919050565b60606040805190810160405280600f81526020017f4552433732315a546f6b656e4e46540000000000000000000000000000000000815250905090565b60006004600083815260200190815260200160002060009054906101000a900473ffffffffffffffffffffffffffffffffffffffff169050919050565b610d2133848484611fd4565b505050565b6000610d31826110ac565b90508073ffffffffffffffffffffffffffffffffffffffff168373ffffffffffffffffffffffffffffffffffffffff1614151515610d6e57600080fd5b8073ffffffffffffffffffffffffffffffffffffffff163373ffffffffffffffffffffffffffffffffffffffff161480610dae5750610dad8133611cc5565b5b1515610db957600080fd5b826004600084815260200190815260200160002060006101000a81548173ffffffffffffffffffffffffffffffffffffffff021916908373ffffffffffffffffffffffffffffffffffffffff160217905550818373ffffffffffffffffffffffffffffffffffffffff168273ffffffffffffffffffffffffffffffffffffffff167f8c5be1e5ebec7d5bd14f71427d1e84f3dd0314c0f7b2291e5b200ac8c7c3b92560405160405180910390a4505050565b60006001905090565b610e808484848461238b565b50505050565b6000600180549050905090565b6301ffc9a77c01000000000000000000000000000000000000000000000000000000000281565b6000600660008473ffffffffffffffffffffffffffffffffffffffff1673ffffffffffffffffffffffffffffffffffffffff168152602001908152602001600020600083815260200190815260200160002060000160029054906101000a900460ff16905092915050565b600080600560008481526020019081526020016000205414159050919050565b6000610f4f610e86565b82101515610f5c57600080fd5b600182815481101515610f6b57fe5b90600052602060002001549050919050565b600760009054906101000a900473ffffffffffffffffffffffffffffffffffffffff1673ffffffffffffffffffffffffffffffffffffffff163373ffffffffffffffffffffffffffffffffffffffff16141515611068576040517f08c379a00000000000000000000000000000000000000000000000000000000081526004018080602001828103825260288152602001807f6d73672e73656e646572206973206e656974686572205f66726f6d206e6f722081526020017f6f70657261746f7200000000000000000000000000000000000000000000000081525060400191505060405180910390fd5b80600860006101000a81548173ffffffffffffffffffffffffffffffffffffffff021916908373ffffffffffffffffffffffffffffffffffffffff16021790555050565b60008073ffffffffffffffffffffffffffffffffffffffff166002600084815260200190815260200160002060009054906101000a900473ffffffffffffffffffffffffffffffffffffffff1673ffffffffffffffffffffffffffffffffffffffff1614151515611185576040517f08c379a00000000000000000000000000000000000000000000000000000000081526004018080602001828103825260138152602001807f436f696e20646f6573206e6f742065786973740000000000000000000000000081525060200191505060405180910390fd5b6002600083815260200190815260200160002060009054906101000a900473ffffffffffffffffffffffffffffffffffffffff169050919050565b600760009054906101000a900473ffffffffffffffffffffffffffffffffffffffff1673ffffffffffffffffffffffffffffffffffffffff163373ffffffffffffffffffffffffffffffffffffffff1614151561121c57600080fd5b600760009054906101000a900473ffffffffffffffffffffffffffffffffffffffff1673ffffffffffffffffffffffffffffffffffffffff167ff8df31144d9c2f0f6b59d69b8b98abd5459d07f2742c4df920b25aae33c6482060405160405180910390a26000600760006101000a81548173ffffffffffffffffffffffffffffffffffffffff021916908373ffffffffffffffffffffffffffffffffffffffff160217905550565b60006001905090565b600073ffffffffffffffffffffffffffffffffffffffff16600860009054906101000a900473ffffffffffffffffffffffffffffffffffffffff1673ffffffffffffffffffffffffffffffffffffffff1614151515611395576040517f08c379a00000000000000000000000000000000000000000000000000000000081526004018080602001828103825260178152602001807f6f6e6c79436f6e7472616374206973206e6f742073657400000000000000000081525060200191505060405180910390fd5b600860009054906101000a900473ffffffffffffffffffffffffffffffffffffffff1673ffffffffffffffffffffffffffffffffffffffff163373ffffffffffffffffffffffffffffffffffffffff16141515611480576040517f08c379a00000000000000000000000000000000000000000000000000000000081526004018080602001828103825260378152602001807f796f757220636f6e7472616374206973206e6f74207065726d697373696f6e6581526020017f6420746f2063616c6c207468697320636f6e747261637400000000000000000081525060400191505060405180910390fd5b61148983610f25565b15156114d957600260056000858152602001908152602001600020819055506001839080600181540180825580915050906001820390600052602060002001600090919290919091505550611565565b60026005600085815260200190815260200160002054141515611564576040517f08c379a00000000000000000000000000000000000000000000000000000000081526004018080602001828103825260088152602001807f4e6f74206120465400000000000000000000000000000000000000000000000081525060200191505060405180910390fd5b5b6115728284836000612958565b828273ffffffffffffffffffffffffffffffffffffffff163073ffffffffffffffffffffffffffffffffffffffff167f2114851a3e2a54429989f46c1ab0743e37ded205d9bbdfd85635aed5bd595a06846040518082815260200191505060405180910390a4505050565b600760009054906101000a900473ffffffffffffffffffffffffffffffffffffffff1681565b60606040805190810160405280600781526020017f4552433732315a00000000000000000000000000000000000000000000000000815250905090565b80600360003373ffffffffffffffffffffffffffffffffffffffff1673ffffffffffffffffffffffffffffffffffffffff16815260200190815260200160002060008473ffffffffffffffffffffffffffffffffffffffff1673ffffffffffffffffffffffffffffffffffffffff16815260200190815260200160002060006101000a81548160ff0219169083151502179055508173ffffffffffffffffffffffffffffffffffffffff163373ffffffffffffffffffffffffffffffffffffffff167f17307eab39ab6107e8899845ad3d59bd9653f200f220920489ca2b5937696c3183604051808215151515815260200191505060405180910390a35050565b60608061174d83610f25565b15156117c1576040517f08c379a00000000000000000000000000000000000000000000000000000000081526004018080602001828103825260138152602001807f546f6b656e20646f65736e27742065786973740000000000000000000000000081525060200191505060405180910390fd5b606060405190810160405280603181526020017f68747470733a2f2f72696e6b6562792e6c6f6f6d2e67616d65732f657263373281526020017f312f7a6d622f3030303030302e6a736f6e0000000000000000000000000000008152509150819050600a620186a08481151561183357fe5b0481151561183d57fe5b066030017f01000000000000000000000000000000000000000000000000000000000000000281602681518110151561187257fe5b9060200101907effffffffffffffffffffffffffffffffffffffffffffffffffffffffffffff1916908160001a905350600a612710848115156118b157fe5b048115156118bb57fe5b066030017f0100000000000000000000000000000000000000000000000000000000000000028160278151811015156118f057fe5b9060200101907effffffffffffffffffffffffffffffffffffffffffffffffffffffffffffff1916908160001a905350600a6103e88481151561192f57fe5b0481151561193957fe5b066030017f01000000000000000000000000000000000000000000000000000000000000000281602881518110151561196e57fe5b9060200101907effffffffffffffffffffffffffffffffffffffffffffffffffffffffffffff1916908160001a905350600a6064848115156119ac57fe5b048115156119b657fe5b066030017f0100000000000000000000000000000000000000000000000000000000000000028160298151811015156119eb57fe5b9060200101907effffffffffffffffffffffffffffffffffffffffffffffffffffffffffffff1916908160001a905350600a8084811515611a2857fe5b04811515611a3257fe5b066030017f01000000000000000000000000000000000000000000000000000000000000000281602a815181101515611a6757fe5b9060200101907effffffffffffffffffffffffffffffffffffffffffffffffffffffffffffff1916908160001a905350600a600184811515611aa557fe5b04811515611aaf57fe5b066030017f01000000000000000000000000000000000000000000000000000000000000000281602b815181101515611ae457fe5b9060200101907effffffffffffffffffffffffffffffffffffffffffffffffffffffffffffff1916908160001a90535081915050919050565b611b2682610f25565b151515611bc1576040517f08c379a00000000000000000000000000000000000000000000000000000000081526004018080602001828103825260278152602001807f4572726f723a20547269656420746f206d696e74206475706c6963617465207481526020017f6f6b656e2069640000000000000000000000000000000000000000000000000081525060400191505060405180910390fd5b611bcf818360016002612958565b806002600084815260200190815260200160002060006101000a81548173ffffffffffffffffffffffffffffffffffffffff021916908373ffffffffffffffffffffffffffffffffffffffff160217905550600160056000848152602001908152602001600020819055506001829080600181540180825580915050906001820390600052602060002001600090919290919091505550818173ffffffffffffffffffffffffffffffffffffffff163073ffffffffffffffffffffffffffffffffffffffff167fddf252ad1be2c89b69c2b068fc378daa952ba7f163c4a11628f55a4df523b3ef60405160405180910390a45050565b6000600360008473ffffffffffffffffffffffffffffffffffffffff1673ffffffffffffffffffffffffffffffffffffffff16815260200190815260200160002060008373ffffffffffffffffffffffffffffffffffffffff1673ffffffffffffffffffffffffffffffffffffffff16815260200190815260200160002060009054906101000a900460ff16905092915050565b600760009054906101000a900473ffffffffffffffffffffffffffffffffffffffff1673ffffffffffffffffffffffffffffffffffffffff163373ffffffffffffffffffffffffffffffffffffffff16141515611db557600080fd5b611dbe81612ba2565b50565b60026005600084815260200190815260200160002054141515611de357600080fd5b611ded8383610eba565b1515611ea857611dfd8383610bc4565b8111151515611e9a576040517f08c379a00000000000000000000000000000000000000000000000000000000081526004018080602001828103825260228152602001807f5175616e746974792067726561746572207468616e2066726f6d2062616c616e81526020017f636500000000000000000000000000000000000000000000000000000000000081525060400191505060405180910390fd5b611ea78383836001612958565b5b505050565b6000600760009054906101000a900473ffffffffffffffffffffffffffffffffffffffff1673ffffffffffffffffffffffffffffffffffffffff163373ffffffffffffffffffffffffffffffffffffffff16141515611f9a576040517f08c379a00000000000000000000000000000000000000000000000000000000081526004018080602001828103825260288152602001807f6d73672e73656e646572206973206e656974686572205f66726f6d206e6f722081526020017f6f70657261746f7200000000000000000000000000000000000000000000000081525060400191505060405180910390fd5b600860009054906101000a900473ffffffffffffffffffffffffffffffffffffffff16905090565b611fce84848484611fd4565b50505050565b600073ffffffffffffffffffffffffffffffffffffffff16600860009054906101000a900473ffffffffffffffffffffffffffffffffffffffff1673ffffffffffffffffffffffffffffffffffffffff161415151561209b576040517f08c379a00000000000000000000000000000000000000000000000000000000081526004018080602001828103825260178152602001807f6f6e6c79436f6e7472616374206973206e6f742073657400000000000000000081525060200191505060405180910390fd5b600860009054906101000a900473ffffffffffffffffffffffffffffffffffffffff1673ffffffffffffffffffffffffffffffffffffffff163373ffffffffffffffffffffffffffffffffffffffff16141515612186576040517f08c379a00000000000000000000000000000000000000000000000000000000081526004018080602001828103825260378152602001807f796f757220636f6e7472616374206973206e6f74207065726d697373696f6e6581526020017f6420746f2063616c6c207468697320636f6e747261637400000000000000000081525060400191505060405180910390fd5b600260056000848152602001908152602001600020541415156121a857600080fd5b600073ffffffffffffffffffffffffffffffffffffffff168373ffffffffffffffffffffffffffffffffffffffff161415151561224d576040517f08c379a00000000000000000000000000000000000000000000000000000000081526004018080602001828103825260128152602001807f496e76616c696420746f2061646472657373000000000000000000000000000081525060200191505060405180910390fd5b6122578483610eba565b1515612312576122678483610bc4565b8111151515612304576040517f08c379a00000000000000000000000000000000000000000000000000000000081526004018080602001828103825260228152602001807f5175616e746974792067726561746572207468616e2066726f6d2062616c616e81526020017f636500000000000000000000000000000000000000000000000000000000000081525060400191505060405180910390fd5b6123118483836001612958565b5b61231f8383836000612958565b818373ffffffffffffffffffffffffffffffffffffffff168573ffffffffffffffffffffffffffffffffffffffff167f2114851a3e2a54429989f46c1ab0743e37ded205d9bbdfd85635aed5bd595a06846040518082815260200191505060405180910390a450505050565b600080600073ffffffffffffffffffffffffffffffffffffffff16600860009054906101000a900473ffffffffffffffffffffffffffffffffffffffff1673ffffffffffffffffffffffffffffffffffffffff1614151515612455576040517f08c379a00000000000000000000000000000000000000000000000000000000081526004018080602001828103825260178152602001807f6f6e6c79436f6e7472616374206973206e6f742073657400000000000000000081525060200191505060405180910390fd5b600860009054906101000a900473ffffffffffffffffffffffffffffffffffffffff1673ffffffffffffffffffffffffffffffffffffffff163373ffffffffffffffffffffffffffffffffffffffff16141515612540576040517f08c379a00000000000000000000000000000000000000000000000000000000081526004018080602001828103825260378152602001807f796f757220636f6e7472616374206973206e6f74207065726d697373696f6e6581526020017f6420746f2063616c6c207468697320636f6e747261637400000000000000000081525060400191505060405180910390fd5b825184511415156125df576040517f08c379a00000000000000000000000000000000000000000000000000000000081526004018080602001828103825260268152602001807f496e636f6e73697374656e74206172726179206c656e6774682062657477656581526020017f6e2061726773000000000000000000000000000000000000000000000000000081525060400191505060405180910390fd5b600073ffffffffffffffffffffffffffffffffffffffff168573ffffffffffffffffffffffffffffffffffffffff1614151515612684576040517f08c379a00000000000000000000000000000000000000000000000000000000081526004018080602001828103825260118152602001807f496e76616c696420726563697069656e7400000000000000000000000000000081525060200191505060405180910390fd5b83519150600090505b818110156128275760016005600086848151811015156126a957fe5b9060200190602002015181526020019081526020016000205414156127a457846002600086848151811015156126db57fe5b90602001906020020151815260200190815260200160002060006101000a81548173ffffffffffffffffffffffffffffffffffffffff021916908373ffffffffffffffffffffffffffffffffffffffff160217905550838181518110151561273f57fe5b906020019060200201518573ffffffffffffffffffffffffffffffffffffffff168773ffffffffffffffffffffffffffffffffffffffff167fddf252ad1be2c89b69c2b068fc378daa952ba7f163c4a11628f55a4df523b3ef60405160405180910390a45b6127df8685838151811015156127b657fe5b9060200190602002015185848151811015156127ce57fe5b906020019060200201516001612958565b61281a8585838151811015156127f157fe5b90602001906020020151858481518110151561280957fe5b906020019060200201516000612958565b808060010191505061268d565b7ff59807b2c31ca3ba212e90599175c120c556422950bac5be656274483e8581df86868686604051808573ffffffffffffffffffffffffffffffffffffffff1673ffffffffffffffffffffffffffffffffffffffff1681526020018473ffffffffffffffffffffffffffffffffffffffff1673ffffffffffffffffffffffffffffffffffffffff1681526020018060200180602001838103835285818151815260200191508051906020019060200280838360005b838110156128f75780820151818401526020810190506128dc565b50505050905001838103825284818151815260200191508051906020019060200280838360005b8381101561293957808201518184015260208101905061291e565b50505050905001965050505050505060405180910390a1505050505050565b6129628484610eba565b1561296c57612b9c565b6000821415612ac1576001600660008673ffffffffffffffffffffffffffffffffffffffff1673ffffffffffffffffffffffffffffffffffffffff168152602001908152602001600020600085815260200190815260200160002060000160026101000a81548160ff021916908315150217905550612a4f600660008673ffffffffffffffffffffffffffffffffffffffff1673ffffffffffffffffffffffffffffffffffffffff168152602001908152602001600020600085815260200190815260200160002060000160009054906101000a900461ffff1660006002612c9e565b600660008673ffffffffffffffffffffffffffffffffffffffff1673ffffffffffffffffffffffffffffffffffffffff168152602001908152602001600020600085815260200190815260200160002060000160006101000a81548161ffff021916908361ffff160217905550612b9b565b612b2d600660008673ffffffffffffffffffffffffffffffffffffffff1673ffffffffffffffffffffffffffffffffffffffff168152602001908152602001600020600085815260200190815260200160002060000160009054906101000a900461ffff168383612c9e565b600660008673ffffffffffffffffffffffffffffffffffffffff1673ffffffffffffffffffffffffffffffffffffffff168152602001908152602001600020600085815260200190815260200160002060000160006101000a81548161ffff021916908361ffff1602179055505b5b50505050565b600073ffffffffffffffffffffffffffffffffffffffff168173ffffffffffffffffffffffffffffffffffffffff1614151515612bde57600080fd5b8073ffffffffffffffffffffffffffffffffffffffff16600760009054906101000a900473ffffffffffffffffffffffffffffffffffffffff1673ffffffffffffffffffffffffffffffffffffffff167f8be0079c531659141344cd1fd0a4f28419497f9722a3daafe3b4186f6b6457e060405160405180910390a380600760006101000a81548173ffffffffffffffffffffffffffffffffffffffff021916908373ffffffffffffffffffffffffffffffffffffffff16021790555050565b6000806000806002811115612caf57fe5b846002811115612cbb57fe5b1415612ce2578561ffff169050612cdb8582612e6590919063ffffffff16565b9150612db8565b60016002811115612cef57fe5b846002811115612cfb57fe5b1415612d22578561ffff169050612d1b8582612e8190919063ffffffff16565b9150612db7565b600280811115612d2e57fe5b846002811115612d3a57fe5b1415612d4857849150612db6565b6040517f08c379a00000000000000000000000000000000000000000000000000000000081526004018080602001828103825260118152602001807f496e76616c6964206f7065726174696f6e00000000000000000000000000000081525060200191505060405180910390fd5b5b5b601060020a82101515612e59576040517f08c379a00000000000000000000000000000000000000000000000000000000081526004018080602001828103825260238152602001807f416d6f756e7420746f20777269746520696e2062696e20697320746f6f206c6181526020017f726765000000000000000000000000000000000000000000000000000000000081525060400191505060405180910390fd5b81925050509392505050565b60008183019050828110151515612e7857fe5b80905092915050565b6000828211151515612e8f57fe5b8183039050929150505600a165627a7a72305820ff63012d505621c60b7618db31e1437e5494ad740709c6a026d0284f29a4eacb0029",
  "source": "pragma solidity ^0.4.24;\n\nimport \"./../../Interfaces/ERC721Z.sol\";\nimport \"openzeppelin-solidity/contracts/ownership/Ownable.sol\";\n\nimport \"./ERC721ZTokenNFT.sol\";\n\n// import \"openzeppelin-solidity/contracts/AddressUtils.sol\";\n// import \"./../../Libraries/ObjectsLib.sol\";\n\n\n// Additional features over NFT token that is compatible with batch transfers\ncontract ERC721ZToken is ERC721Z, ERC721ZTokenNFT, Ownable {\n\n    using ObjectLib for ObjectLib.Operations;\n    using AddressUtils for address;\n\n    bytes4 internal constant ERC721Z_RECEIVED = 0x660b3370;\n    bytes4 internal constant ERC721Z_BATCH_RECEIVE_SIG = 0xe9e5be6a;\n\n    event BatchTransfer(address from, address to, uint256[] tokenTypes, uint256[] amounts);\n    address onlyContract = address(0);\n\n    modifier isOwner() {\n        require((msg.sender == owner), \"msg.sender is neither _from nor operator\");\n        _;\n    }\n\n    modifier isOnlyContract() {\n      require(onlyContract != address(0), \"onlyContract is not set\");\n      require(msg.sender == onlyContract, \"your contract is not permissioned to call this contract\");\n      _;\n    }\n\n    function implementsERC721Z() public pure returns (bool) {\n        return true;\n    }\n\n    function setOnlyContract(address contractAddress) external isOwner {\n      onlyContract = contractAddress;\n    }\n\n    function getOnlyContract() view external isOwner returns(address) {\n      return onlyContract;\n    }\n\n    /**\n     * @dev transfer objects from different tokenIds to specified address\n     * @param _from The address to BatchTransfer objects from.\n     * @param _to The address to batchTransfer objects to.\n     * @param _tokenIds Array of tokenIds to update balance of\n     * @param _amounts Array of amount of object per type to be transferred.\n     * Note:  Arrays should be sorted so that all tokenIds in a same bin are adjacent (more efficient).\n     */\n    function _batchTransferFrom(address _from, address _to, uint256[] _tokenIds, uint256[] _amounts)\n        internal\n        isOnlyContract\n    {\n        // Requirements\n        require(_tokenIds.length == _amounts.length, \"Inconsistent array length between args\");\n        require(_to != address(0), \"Invalid recipient\");\n\n        // Number of transfers to execute\n        uint256 nTransfer = _tokenIds.length;\n\n        for (uint256 i = 0; i < nTransfer; i++) {\n            // If we're transferring an NFT we additionally should update the tokenOwner and emit the corresponding event\n            if (tokenType[_tokenIds[i]] == NFT) {\n                tokenOwner[_tokenIds[i]] = _to;\n                emit Transfer(_from, _to, _tokenIds[i]);\n            }\n\n            // Update memory balance\n            _updateTokenBalance(_from, _tokenIds[i], _amounts[i], ObjectLib.Operations.SUB);\n            _updateTokenBalance(_to, _tokenIds[i], _amounts[i], ObjectLib.Operations.ADD);\n        }\n\n        // Emit batchTransfer event\n        emit BatchTransfer(_from, _to, _tokenIds, _amounts);\n    }\n\n    function batchTransferFrom(address _from, address _to, uint256[] _tokenIds, uint256[] _amounts) public {\n        // Batch Transfering\n        _batchTransferFrom(_from, _to, _tokenIds, _amounts);\n    }\n\n    function transfer(address _to, uint256 _tokenId, uint256 _amount) public {\n        _transferFrom(msg.sender, _to, _tokenId, _amount);\n    }\n\n    function transferFrom(address _from, address _to, uint256 _tokenId, uint256 _amount) public {\n        _transferFrom(_from, _to, _tokenId, _amount);\n    }\n\n    function _transferFrom(address _from, address _to, uint256 _tokenId, uint256 _amount)\n        internal\n        isOnlyContract\n    {\n        require(tokenType[_tokenId] == FT);\n        require(_to != address(0), \"Invalid to address\");\n        if(!checkInfinity(_from, _tokenId)) {\n          require(_amount <= balanceOf(_from, _tokenId), \"Quantity greater than from balance\");\n          _updateTokenBalance(_from, _tokenId, _amount, ObjectLib.Operations.SUB);\n        }\n\n        _updateTokenBalance(_to, _tokenId, _amount, ObjectLib.Operations.ADD);\n        emit TransferWithQuantity(_from, _to, _tokenId, _amount);\n    }\n\n    function burn(address _from, uint256 _tokenId, uint256 _amount) public {\n      require(tokenType[_tokenId] == FT);\n      if(!checkInfinity(_from, _tokenId)) {\n        require(_amount <= balanceOf(_from, _tokenId), \"Quantity greater than from balance\");\n        _updateTokenBalance(_from, _tokenId, _amount, ObjectLib.Operations.SUB);\n      }\n    }\n\n    function _mint(uint256 _tokenId, address _to, uint256 _supply) public isOnlyContract {\n        // If the token doesn't exist, add it to the tokens array\n        if (!exists(_tokenId)) {\n            tokenType[_tokenId] = FT;\n            allTokens.push(_tokenId);\n        } else {\n            // if the token exists, it must be a FT\n            require(tokenType[_tokenId] == FT, \"Not a FT\");\n        }\n\n        _updateTokenBalance(_to, _tokenId, _supply, ObjectLib.Operations.ADD);\n        emit TransferWithQuantity(address(this), _to, _tokenId, _supply);\n    }\n}\n",
  "sourcePath": "/home/kim/workspace/bigchain/TruffLeBToken/contracts/Core/ERC721Z/ERC721ZToken.sol",
  "compiler": {
    "name": "solc",
    "version": "0.4.25+commit.59dbf8f1.Emscripten.clang"
  },
  "schemaVersion": "2.0.2",
  "updatedAt": "2020-02-19T03:40:15.310Z"
}